:100000000C9455030C9472030C9472030C947203B9
:100010000C9472030C9472030C9472030C9472038C
:100020000C9472030C9472030C9472030C9472037C
:100030000C9472030C9472030C941C090C947203BC
:100040000C9472030C9472030C94F8050C9438060B
:100050000C9472030C9448050C9472030C94720374
:100060000C9472030C947203BF0203020303010198
:1000700004040600FF05FF05FF010602090624200F
:1000800006747C36002108749CAC0EC400220774F0
:100090008CA49D06230B748C241994645052002464
:1000A00009749C68119329022508748C34AAA6004F
:1000B000260A749C28892A5112022707749C2C272F
:1000C00002280774AC5A63022908748C306BCA008A
:1000D0002A09748C248AA64A0A2B08749C2C9AB28A
:1000E000182C07747C5A94012D07747C6487012EA8
:1000F00006747C5A0C2F0874AC2CAAE500300974E5
:100100009C284996520C3108749C482BAD0032094A
:10011000749C28C9A268053308748C2D0A131934FD
:1001200008748CA465AB023508748C25131319363A
:1001300009741C25939228063708748C2DAAE500B3
:100140003809741CA5544964003909749C2889B481
:1001500044063A0774DC1C8C013B0874DC1C8C32AE
:10016000003C0774ACC62A003D0774CC7587003E7E
:1001700007748CB054073F08740C31CA81184007CB
:10018000741CA547154109749C284996AE00420A83
:10019000740C2949A42491014309749C28A9255170
:1001A0000C4408740C29E945064508748C2593B263
:1001B000154608748C2593B21C4709741C254B9A6C
:1001C00054004808748CA465E90A4908748C292BEA
:1001D000AD004A0874ACAC528A014B09748CA4453A
:1001E0004A5A014C07748CAC6D054D08748C24B9C7
:1001F00074054E0874ACA4B2B4034F08749C28E98B
:1002000029065009740C2949A42C075109749C280B
:10021000E9294C005209740C2949A4A41553087407
:100220001C25ACC8005407748C296B065508748CC7
:10023000A45F56005608748CA49729065708748C3E
:10024000A4E552055808748CA4A9D20A5908748CE4
:10025000A4292B035A08748C2DAAAD005B08741CCA
:1002600029ABA9005C08748C2CACA5005D07740C4C
:10027000AD49065E08749C28C969005F06747CF26B
:10028000026007749C30A7016107745CA5930A6241
:1002900009748C4C4A5A64006308745C250B550041
:1002A000640874AC48E9A402650874DC2849341574
:1002B000660874ACD294C5006709745CA5A42512C5
:1002C000006808748C4C4A7A056908749C588B56EF
:1002D000006A0974AC1CC82A12006B09748C2C4982
:1002E000A4A4156C07740CAD69056D0874CC245971
:1002F000BA026E07744C29E9156F0874DC28698A04
:10030000017009744C2949A42C037108745CA593ED
:100310009600720874CC2491B21C7308745C454C2E
:1003200064007408749C68CAC214750774CCA4274E
:1003300015760774CCA4A718770874CCA465A90215
:10034000780974CC24CAA22405790974CCA4494B39
:1003500024007A0874CC2D8A56007B0874AC92561F
:100360004C007C07749CAC33007D09748C3093B2D4
:1003700028037E08749C44C96900A006747C36007A
:10038000A108749C1CC8CA00A208749C68C9A6185D
:10039000A30874AC9A544901A40974CC28919428F8
:1003A00004A509748C248AA62C06A608749C2C0724
:1003B000B218A709741C5312698904A806748C2406
:1003C00067A90A741C255A16295100AA08741CA58D
:1003D000A4AE00AB0974DC4489921C01AC08747CA7
:1003E00064CB2100AD07747C648701AE09741C6581
:1003F00058121D02AF06748C9D01B008749C2889A8
:100400007202B108749C688A5700B208740C2DCA35
:10041000740CB308740C2D0AA31CB40674AC3A1106
:10042000B50874CCA4172903B608749C41597A0402
:10043000B706747C2827B807747C421403B9087483
:100440009C48AB6300BA08749C2889E215BB097408
:10045000CC244A941C02BC09748CAC98245B00BD6B
:1004600009748CACA2459900BE09740C2D0A135B6B
:1004700000BF08749C1C884215C009748C304A92D5
:10048000A50AC10874AC9664A902C209740C2D4A6D
:1004900092A50AC309741C53922C5500C409748C8C
:1004A00024AA244B15C509749C2C4A92A50AC60A95
:1004B000749C214906A52202C709749C28A92551CC
:1004C0000DC808748C6C91B215C90874AC6491B2F3
:1004D00015CA08741C6591B215CB09748C2459A4F3
:1004E0006C05CC08748C6CCAA215CD0874AC64CAB7
:1004F000A215CE08749C68CAA215CF09748C24CAB0
:100500004A2B00D009748C29592A430AD109749CBA
:1005100044492E5500D209748C304A9A6200D307A0
:1005200074AC96A618D409749C2C4A9A6200D5081B
:10053000749C61E91403D609748C24AA34C500D7CD
:100540000974CC24AAE41000D809741CA5B2546420
:1005500000D909748C304A5A5600DA0774AC969662
:1005600015DB08749C38695901DC09748C244D5AD8
:100570005600DD0874AC3489B218DE09748C4C4A1C
:10058000122907DF0B749C2849A424593200E00982
:10059000748C30534A2A00E10874AC9A525201E23A
:1005A00008741C5929A900E309749C448994920A8F
:1005B000E409748C24564A2A00E509749C1C504AAC
:1005C0002A00E60874DC2159A211E70974DC282905
:1005D0004A1100E809748C304A124D05E90874ACE0
:1005E00096445301EA09740C2D4A124D05EB097427
:1005F0008C24AA249A0AEC08748C302BAD00ED08E8
:1006000074AC442BAD00EE09749C2889B26805EFE8
:1006100008748C24D5A215F009748C24CA94520C49
:10062000F109749C4449A4A415F209748C308B928E
:100630002806F30974AC5A94443100F409749C1CE4
:1006400088922806F508748C394AA218F609748C29
:10065000248E922806F707749C788E01F807745C44
:10066000A58B0CF909748C304A9A5400FA0774ACC3
:10067000962615FB08749C38695201FC09748C2479
:100680004D9A5400FD0974AC96644B2400FE0A7424
:100690008C2C939244CA00FF0A748C244D922D91A5
:1006A0000000000004FFFF00000011241FBECFEF78
:1006B000D8E0DEBFCDBF11E0A0E0B1E0E4E0FFE4B0
:1006C00002C005900D92A236B107D9F728E0A2E644
:1006D000B1E001C01D92A635B207E1F70E9486067F
:1006E0000C9480270C940000CF93DF9300D000D0AF
:1006F00000D0CDB7DEB78C01892B21F480E090E0EB
:100700000E942E1182E0F82E40E065E081E00E9418
:1007100017050E943E058823E1F30E9441059A8354
:10072000898341E065E081E00E9417050E943E0553
:100730008823E1F30E9441059C838B834EE060E0B7
:1007400081E00E94170581E090E00E94A7134EE02F
:1007500065E081E00E9417050E943E058823E1F3D1
:100760000E9441059E838D8389819A8181329340C5
:1007700010F0F801F3828B819C818132934010F05C
:10078000F801138221E041E050E0BE016F5F7F4F2E
:10079000F801808191810E94680981E090E00E94C7
:1007A000A713B2CFCF93DF93CDB7DEB7C758D10928
:1007B0000FB6F894DEBF0FBECDBF5C01892B21F4CC
:1007C00080E090E00E942E112CEB33E249EE52E2E1
:1007D00064E471E0CE0101960E94E018CE0101961A
:1007E0000E949A2160E0CE0101960E94A42158EE59
:1007F000852E53E0952E62E0C62E61E0D62E7AE07B
:10080000272EE6E6EE2EF12CEC0EFD1E80E1E80E22
:10081000F11CF2E03F2EAAE44A2EADE25A2E612CE2
:10082000712C1FE30E94F9139C01CA57DF4F888186
:100830009981C658D040B901681B790BC4010E9448
:100840001424CA57DF4F39832883C658D0407727EE
:100850007F936F93DF92CF921F922F92FF92EF922E
:100860000E94882441E050E0BE0160587F4FF501AE
:10087000808191810E94030DC058DF4F888199814A
:10088000C058D04096958795929582958F7089270C
:100890009F70892798E3980FA7969FAFA797CE5789
:1008A000DF4F28813981C258D0403695279532953F
:1008B00022952F7023273F7023279AE0920FA89646
:1008C0009FAFA89730E4380FA9963FAFA997AA9693
:1008D0009FAFAA97845CAB968FAFAB9736E0320F91
:1008E000AC963FAFAC97AD968FAFAD97225FAE960B
:1008F0002FAFAE97AF968FAFAF97E0969FAFE097D1
:10090000E1963FAEE197FFE0E296FFAFE29784E029
:10091000E5968FAFE597CC57DF4F28813981C458D2
:10092000D04040E050E0C301B2010E944A24E69664
:100930002FAFE6979BE7E3969FAFE397812F821B4C
:10094000E4968FAFE497CE0101960E94D5170FB6BB
:10095000F894DEBF0FBECDBFAA960FADAA97A99699
:100960002FADA997A8964FADA897A7966FADA7975B
:10097000CE0101960E94F01EAE960FADAE97AD96D9
:100980002FADAD97AC964FADAC97AB966FADAB9727
:10099000CE0101960E94F01EE2960FADE297E1961D
:1009A0002FADE197E0964FADE097AF966FADAF9763
:1009B000CE0101960E94891800E220E24AE06CE331
:1009C000CE0101960E94331700E426E040E06AE77A
:1009D000CE0101960E943317E6960FADE697E59695
:1009E0002FADE597E4964FADE497E3966FADE397AF
:1009F000CE0101960E940B1768E670E0CE010196C9
:100A00000E944F1D970145E060E0CE0101960E94D3
:100A1000401DCE0101960E94F71781119DCF61E024
:100A200070E0CE018A579F4F0E943613FBCE0FB65F
:100A3000F8940F9290917A0096FF05C090917A00F9
:100A40009F7790937A0020E4829FC0011124942F15
:100A50009F70892B80937C0081E090E001C0880F1B
:100A60004A95EAF78F7380937E006770686C609395
:100A70007A00109262010F900FBE0895809162017A
:100A800008951092620180914E0890914F08089548
:100A90001F920F920FB60F9211248F939F93809104
:100AA00078009091790090934F0880934E0881E0F0
:100AB000809362019F918F910F900FBE0F901F90B6
:100AC0001895CF92DF92EF92FF92CF936B017C014A
:100AD000C42F0FB6F8940F9240E061E08C2F0E9473
:100AE0001F09909366018093650140E061E08C2FBF
:100AF0000E941F099093640180936301D701C6018E
:100B0000880F991FAA1FBB1F880F991FAA1FBB1F01
:100B10009C01AD01220F331F441F551F60E074E29A
:100B200084EF90E00E942824BA01A90141505109A4
:100B300061097109E0ECF0E080818260808340937C
:100B4000C400BB27A72F962F852F8093C50088E967
:100B50008093C10086E08093C2000F900FBE80E0BA
:100B600090E0CF91FF90EF90DF90CF900895CF92DB
:100B7000DF92EF92FF920F931F93CF93DF931F9219
:100B8000CDB7DEB74115510589F1FB01808188237E
:100B900069F169018B010F5F1F4F7B01E40EF51EA8
:100BA000898320E0A601BE016F5F7F4F80916301C2
:100BB000909164010E946809813059F080E00F90A3
:100BC000DF91CF911F910F91FF90EF90DF90CF9029
:100BD00008958091C10080628093C1000E151F05A9
:100BE00029F0F80181918F018111DACF81E0E7CFFF
:100BF0001F920F920FB60F9211242F933F934F9392
:100C00005F936F937F938F939F93AF93BF93EF9374
:100C1000FF93CF93DF9300D0CDB7DEB719828091D9
:100C2000C6008A8320E0AE014F5F5F4FBE016E5F5A
:100C30007F4F80916501909166010E941C0B898114
:100C400081110E9467080F900F90DF91CF91FF9163
:100C5000EF91BF91AF919F918F917F916F915F9134
:100C60004F913F912F910F900FBE0F901F901895AD
:100C70001F920F920FB60F9211242F933F934F9311
:100C80005F936F937F938F939F93AF93BF93EF93F4
:100C9000FF93CF93DF9300D0CDB7DEB7AE014F5FA8
:100CA0005F4FBE016E5F7F4F809163019091640141
:100CB0000E946B0E8130D1F08091C1008F7D8093B6
:100CC000C1000F900F90DF91CF91FF91EF91BF91F5
:100CD000AF919F918F917F916F915F914F913F91D4
:100CE0002F910F900FBE0F901F9018958A818093BF
:100CF000C600E7CFF89498E088E10FB6F894A8957D
:100D0000809360000FBE90936000FFCF0FB6F89401
:100D1000A8958091600088618093600010926000C7
:100D20000FBE40E066E081E00E941F0990935108E9
:100D300080935008892B79F1E12CF12C02E020E519
:100D400038E046E950E06AE071E083E395E10E9413
:100D5000B50F03E020E538E044E650E061E171E0E2
:100D600084E793E00E94B50F01E020E538E048E712
:100D700050E065E171E081EE96E10E94B50F20E55B
:100D800038E04CE251E06BE171E082ED93E00E94CB
:100D9000B50F0E949F110E947A06FC010396928370
:100DA00081832FEF3FEF348323839683858390875E
:100DB000878310820895FC01118610860895CF93D1
:100DC000DF939C01FB01DC011196CD91DC91129720
:100DD000D383C2838C819D81958384838C819D8103
:100DE000DC0113967C936E9312977D836C8331871D
:100DF0002087F90180818F5F8083DF91CF910895F3
:100E0000CF93DF93EB01488159814F3F2FEF52077A
:100E100001F1DC01139601C0DF011296ED91FC9106
:100E200013972081318142175307B0F7FB83EA8380
:100E3000D583C483BD83AC831396DC93CE93129782
:100E400099878887FC0120812F5F2083DF91CF91D4
:100E50000895FC01A781B0851296ED91FC9113973E
:100E6000E5CFCF93DF93FC01A085B185228133814B
:100E700084819581E9019D838C8384819581EC0136
:100E80003B832A8311962D913C911297E217F30729
:100E900049F0118610868C9181508C938C91DF9152
:100EA000CF91089512969C938E931197F2CF0F9342
:100EB0001F93CF93DF93EC010E948D128091670105
:100EC000811121C081E791E090936D0180936C01C5
:100ED00010926F0110926E018BED95E090936B0173
:100EE00080936A01109269011092680190937401D5
:100EF0008093730188E691E0909372018093710171
:100F000081E080936701209709F45EC0AE014C5FD9
:100F10005F4F2396CA3DD54008F056C0E0916C0162
:100F2000F0916D01ACE6B1E006C08081918100973F
:100F300039F0DF01FC012281338124173507A8F342
:100F4000C1E0E836FC0709F43FC08F010C5F1F4F7A
:100F5000808191818D939C93C901841B950B89306D
:100F6000910500F1BF01640F751FDB0113969C937F
:100F70008E9312975383428312962D913C9113972F
:100F8000ACE6B1E001C0DF01ED91FC9111978281E7
:100F9000938182179307B8F3EB01F983E8836D938C
:100FA0007C939A018091000190910101821B930B27
:100FB00090930101809300010E949312C801DF9178
:100FC000CF911F910F91089500E010E00E949312BD
:100FD000C801DF91CF911F910F910895CF93DF93B7
:100FE000009721F1EC0124970E948D124A815B81C8
:100FF000ACE6B1E001C0DF01ED91FC9111972281D7
:10100000338124173507B8F3F983E883CD93DC9354
:101010008091000190910101480F591F50930101E7
:1010200040930001DF91CF910C949312DF91CF9107
:10103000089580910001909101010895FC01608361
:101040003197708331971082319720E82083319750
:1010500010827797408331975083839708958EE06D
:1010600087BD82E084BD85E085BDEEE6F0E080814D
:1010700082608083A091CC07B091CD07CD91CDBF88
:10108000DD91DEBFFF91EF91DF91CF91BF91AF91E5
:101090009F918F917F916F915F914F913F912F9190
:1010A0001F910F91FF90EF90DF90CF90BF90AF9086
:1010B0009F908F907F906F905F904F903F902F9078
:1010C0001F900F900FBE0F90089581E008950F922A
:1010D0000FB6F8940F921F9211242F923F924F92C5
:1010E0005F926F927F928F929F92AF92BF92CF92B8
:1010F000DF92EF92FF920F931F932F933F934F93A3
:101100005F936F937F938F939F93AF93BF93CF938F
:10111000DF93EF93FF93A091CC07B091CD070DB66D
:101120000D920EB60D920E941414A091CC07B091AE
:10113000CD07CD91CDBFDD91DEBFFF91EF91DF9166
:10114000CF91BF91AF919F918F917F916F915F915F
:101150004F913F912F911F910F91FF90EF90DF9052
:10116000CF90BF90AF909F908F907F906F905F9047
:101170004F903F902F901F900F900FBE0F900895AB
:101180000F920FB6F8940F921F9211242F923F9254
:101190004F925F926F927F928F929F92AF92BF9287
:1011A000CF92DF92EF92FF920F931F932F933F9373
:1011B0004F935F936F937F938F939F93AF93BF935F
:1011C000CF93DF93EF93FF93A091CC07B091CD071E
:1011D0000DB60D920EB60D920E94031481110E945D
:1011E0001414A091CC07B091CD07CD91CDBFDD9166
:1011F000DEBFFF91EF91DF91CF91BF91AF919F91B2
:101200008F917F916F915F914F913F912F911F919E
:101210000F91FF90EF90DF90CF90BF90AF909F9095
:101220008F907F906F905F904F903F902F901F9086
:101230000F900FBE0F9008950E94C00818950F934D
:101240001F93CF93DF93082F162F869FC001112481
:101250004F960E945707EC01009789F11123A9F1DD
:101260004F96998388830B8F1C8F0FB6F8940F923B
:10127000488159818B8D6C8D9A01869F200D311D7F
:1012800011243D832C831A8E5B834A8390E001975F
:10129000689F9001699F300D1124CA01820F931F2E
:1012A0009F838E838FEF8D8F8E8FCE0108960E9445
:1012B000CD06CE0141960E94CD060F900FBECE0105
:1012C000DF91CF911F910F91089599838883CBCFA0
:1012D0007F928F929F92AF92BF92CF92DF92EF92C6
:1012E000FF920F931F93CF93DF9300D000D01F92F4
:1012F000CDB7DEB78C014B015D834C83722E20E0AD
:101300005C0181E1A80EB11CEE24EA946801E8E0DA
:10131000CE0ED11C0FB6F8940F92F801928D838DEA
:10132000981708F4C0C0F2E07F1609F4DFC08C8182
:101330009D81892B09F44BC1222309F4ABC00F9086
:101340000FBE0E948D120FB6F8940F92F801858D92
:101350008F3F09F4A6C0F801868D8F3F09F49FC026
:101360000F900FBEBE016C5F7F4FCE0101960E94B1
:10137000FC148111DDC00FB6F8940F92F801928D24
:10138000838D0F900FBE981348C06C817D81C6017C
:101390000E9459140FB6F8940F92F801F68C1F149E
:1013A00024F011C0FA94FF2071F0F801818988239C
:1013B00051F0C5010E94A4148823A1F30E942F15A7
:1013C000FA94F110F2CFF801E68E0F900FBE0FB62F
:1013D000F8940F92F58C1F1424F011C0FA94FF209A
:1013E00071F0F8018085882351F0C6010E94A41491
:1013F0008823A1F30E942F15FA94F110F2CFF8017F
:10140000E58E0F900FBE0E949312882311F021E009
:1014100081CF0E94670821E07DCF0FB6F8940F922C
:10142000F801F68C1F1424F011C0FA94FF2071F01B
:10143000F8018189882351F0C5010E94A4148823F2
:10144000A1F30E942F15FA94F110F2CFF801E68E65
:101450000F900FBE0FB6F8940F92F58C1F1424F066
:1014600011C0FA94FF2071F0F8018085882351F0B3
:10147000C6010E94A4148823A1F30E942F15FA9498
:10148000F110F2CFF801E58E0F900FBE0E9493127B
:1014900021E040CFCE0101960E94F11450CF168E6C
:1014A0005FCF158E58CFF801F28C448D442319F18B
:1014B000711091C050E0B401F801828193810E94C3
:1014C0007824F801248D82819381820F911D93836A
:1014D0008283248135818217930768F0F801808127
:1014E00091819383828381E08F0D07C0F801F28C94
:1014F000448D411170C081E08F0DF801828F818988
:1015000081118EC00F900FBE81E00F900F900F9051
:101510000F900F90DF91CF911F910F91FF90EF905F
:10152000DF90CF90BF90AF909F908F907F90089565
:101530000FB6F8940F92F801F68C1F14D4F4F8014A
:1015400081898823B1F06801F1E1CF0ED11C07C079
:10155000FA94FF2071F0F8018189882351F0C601C7
:101560000E94A4148823A1F30E942F15FA94F1106D
:10157000F2CF8FEFF801868F0F900FBE0FB6F89461
:101580000F92F58C1F14D4F4F80180858823B1F0F4
:101590006801F8E0CF0ED11C07C0FA94FF2071F06B
:1015A000F8018085882351F0C6010E94A414882385
:1015B000A1F30E942F15FA94F110F2CF8FEFF801EA
:1015C000858F0F900FBE0E94931280E09ECF0F90E8
:1015D0000FBE80E09ACF50E0B401F8018681978178
:1015E0000E947824F801848D90E09195819591096D
:1015F00026813781280F391F378326834081518107
:101600002417350730F424813581820F931F978387
:101610008683F2E07F126FCFFF2061F08F2D6DCFB8
:10162000C80141960E94A414882309F46BCF0E943C
:10163000670868CF81E061CFDF92EF92FF920F934E
:101640001F93CF93DF93EC017A01D22E9A8D8B8D6D
:101650009817A0F182E0281749F080E0DF91CF9140
:101660001F910F91FF90EF90DF9008951E8D8A8D4E
:101670000A8D4C8D442341F150E08E819F810E9460
:1016800078248C8D90E09195819591092E813F81F0
:10169000280F391F3F832E8348815981241735072E
:1016A00030F42C813D81820F931F9F838E83E2E073
:1016B000DE120AC0011109C001E007C01E8D8A8D2B
:1016C0000A8D4C8D41110FC00F5F0A8F1F3F21F112
:1016D0001F5F1E8F81E0DF91CF911F910F91FF90CF
:1016E000EF90DF9008952111C7CF50E08A819B8150
:1016F0000E9478242C8D8A819B81820F911D9B836F
:101700008A832C813D8182179307F0F28881998129
:101710009B838A830F5FD9CF89898823D9F2CE0131
:1017200041960E94A4148823A9F2E114F10491F2D5
:1017300081E0F701808392CF8F929F92AF92BF9208
:10174000CF92DF92EF92FF920F931F93CF93DF938D
:1017500000D000D01F92CDB7DEB78C014B015D8366
:101760004C8320E06C0181E1C80ED11CEE24EA9488
:101770005801E8E0AE0EB11C0FB6F8940F92F801D4
:10178000F28CF11001C18C819D81892B09F429C152
:10179000222309F4F0C00F900FBE0E948D120FB6E5
:1017A000F8940F92F801858D8F3F09F4EBC0F80192
:1017B000868D8F3F09F4E4C00F900FBEBE016C5FB1
:1017C0007F4FCE0101960E94FC1481118EC00FB68E
:1017D000F8940F92F801828D0F900FBE811148C0CE
:1017E0006C817D81C6010E9459140FB6F8940F9246
:1017F000F801F68C1F1424F011C0FA94FF2071F048
:10180000F8018189882351F0C6010E94A41488231D
:10181000A1F30E942F15FA94F110F2CFF801E68E91
:101820000F900FBE0FB6F8940F92F58C1F1424F092
:1018300011C0FA94FF2071F0F8018085882351F0DF
:10184000C5010E94A4148823A1F30E942F15FA94C5
:10185000F110F2CFF801E58E0F900FBE0E949312A7
:10186000882311F021E088CF0E94670821E084CF0F
:101870000FB6F8940F92F801F68C1F1424F011C0E3
:10188000FA94FF2071F0F8018189882351F0C60194
:101890000E94A4148823A1F30E942F15FA94F1103A
:1018A000F2CFF801E68E0F900FBE0FB6F8940F92AC
:1018B000F58C1F1424F011C0FA94FF2071F0F80188
:1018C0008085882351F0C5010E94A4148823A1F3C8
:1018D0000E942F15FA94F110F2CFF801E58E0F90C7
:1018E0000FBE0E94931221E047CF0FB6F8940F92DB
:1018F000F801F68C1F1424F011C0FA94FF2071F047
:10190000F8018189882351F0C6010E94A41488231C
:10191000A1F30E942F15FA94F110F2CFF801E68E90
:101920000F900FBE0FB6F8940F92F58C1F1424F091
:1019300011C0FA94FF2071F0F8018085882351F0DE
:10194000C5010E94A4148823A1F30E942F15FA94C4
:10195000F110F2CFF801E58E0F900FBE0E949312A6
:101960000FB6F8940F92F801828D0F900FBE81117F
:1019700079CF80E024C0CE0101960E94F1140BCFF4
:10198000168E1ACF158E13CF448D442379F050E074
:1019900066817781640F751F778366838481958163
:1019A0006817790710F5C4010E947824FA94F801A9
:1019B000F28E808581111EC00F900FBE81E00F90C6
:1019C0000F900F900F900F90DF91CF911F910F917B
:1019D000FF90EF90DF90CF90BF90AF909F908F904F
:1019E00008950F900FBE80E0EACF60817181778308
:1019F0006683D9CFC80108960E94A4148823E1F217
:101A00000E946708D9CF8F929F92AF92BF92CF92D8
:101A1000DF92EF92FF920F931F93CF93DF9300D04B
:101A200000D01F92CDB7DEB78C014B015D834C8394
:101A300020E06C0181E1C80ED11CEE24EA9458012B
:101A4000E8E0AE0EB11C0FB6F8940F92F801828D4B
:101A5000811101C18C819D81892B09F42AC1222326
:101A600009F4F0C00F900FBE0E948D120FB6F894CB
:101A70000F92F801858D8F3F09F4EBC0F801868D38
:101A80008F3F09F4E4C00F900FBEBE016C5F7F4F23
:101A9000CE0101960E94FC1481118EC00FB6F894FD
:101AA0000F92F801828D0F900FBE811148C06C819A
:101AB0007D81C6010E9459140FB6F8940F92F80167
:101AC000F68C1F1424F011C0FA94FF2071F0F80175
:101AD0008189882351F0C6010E94A4148823A1F3B0
:101AE0000E942F15FA94F110F2CFF801E68E0F90B4
:101AF0000FBE0FB6F8940F92F58C1F1424F011C08E
:101B0000FA94FF2071F0F8018085882351F0C50117
:101B10000E94A4148823A1F30E942F15FA94F110B7
:101B2000F2CFF801E58E0F900FBE0E94931288232A
:101B300011F021E088CF0E94670821E084CF0FB622
:101B4000F8940F92F801F68C1F1424F011C0FA9447
:101B5000FF2071F0F8018189882351F0C6010E94AD
:101B6000A4148823A1F30E942F15FA94F110F2CF48
:101B7000F801E68E0F900FBE0FB6F8940F92F58C19
:101B80001F1424F011C0FA94FF2071F0F801808531
:101B9000882351F0C5010E94A4148823A1F30E9458
:101BA0002F15FA94F110F2CFF801E58E0F900FBEC9
:101BB0000E94931221E047CF0FB6F8940F92F801DC
:101BC000F68C1F1424F011C0FA94FF2071F0F80174
:101BD0008189882351F0C6010E94A4148823A1F3AF
:101BE0000E942F15FA94F110F2CFF801E68E0F90B3
:101BF0000FBE0FB6F8940F92F58C1F1424F011C08D
:101C0000FA94FF2071F0F8018085882351F0C50116
:101C10000E94A4148823A1F30E942F15FA94F110B6
:101C2000F2CFF801E58E0F900FBE0E9493120FB60F
:101C3000F8940F92F801828D0F900FBE811179CF29
:101C400080E025C0CE0101960E94F1140BCF168EC4
:101C50001ACF158E13CFE680F780448D442371F0A0
:101C600050E0B701640F751F778366838481958187
:101C70006817790710F5C4010E947824F801F782EB
:101C8000E682818981111EC00F900FBE81E00F9006
:101C90000F900F900F900F90DF91CF911F910F91A8
:101CA000FF90EF90DF90CF90BF90AF909F908F907C
:101CB00008950F900FBE80E0EACF60817181778335
:101CC0006683D9CFC80141960E94A4148823E1F20B
:101CD0000E946708D9CFEF92FF920F931F93CF9383
:101CE000DF93FC01128D111108C080E0DF91CF91CC
:101CF0001F910F91FF90EF9008957A019B01EC01E5
:101D0000058D448D442379F050E066817781640F1E
:101D1000751F77836683848195816817790788F4B6
:101D2000C9010E94782411501A8F0F3F79F00F5F7C
:101D30000D8F81E0DF91CF911F910F91FF90EF9078
:101D400008956081718177836683EACF88858823CF
:101D500081F3CE0108960E94A414882351F3E11464
:101D6000F10439F381E0F7018083C0CF0FB6F89416
:101D70000F92FC01828D0F900FBE089520C00FB608
:101D8000F8940F92E0916107F0916207C681D781C4
:101D9000CE0102960E94310780915A0781508093AC
:101DA0005A0780915B07815080935B070F900FBEAD
:101DB0008F89988D0E94EE07CE010E94EE078091D8
:101DC0005B078111DCCF809184078230C0F30E94D1
:101DD0006708F5CFDF92EF92FF920F931F93CF9397
:101DE000DF93E0905807F09059078FEFE81AF80A50
:101DF000F0925907E0925807E114F10411F580912F
:101E000070079091710720916E0730916F073093A2
:101E100071072093700790936F0780936E078091EE
:101E200052078F5F80935207E0917007F09171071E
:101E3000808181118CC08FEF9FEF9093500780932A
:101E40004F0780914F0790915007D12CE816F90663
:101E500030F5E091CC07F091CD07868990E0FC0148
:101E6000EE0FFF1FEE0FFF1FEE0FFF1F8E0F9F1FC6
:101E7000FC01EC57F84F8081823010F0DD24D394C0
:101E800080915307882311F0DD24D3948D2DDF91A9
:101E9000CF911F910F91FF90EF90DF900895E09107
:101EA0007007F09171078081882309F444C0E091A4
:101EB0007007F09171070580F681E02DC681D7810A
:101EC0008A819B81E816F906E8F18E010E5F1F4FAB
:101ED000C8010E9431078C899D89892B21F0CE0190
:101EE0000C960E9431078E8990915707981710F42D
:101EF0008093570790E09C01220F331F220F331F5E
:101F0000220F331F820F931FB8018C57984F0E94E6
:101F1000DF06E091CC07F091CD079E89868998175E
:101F200008F4BDCFDD24D394E0917007F0917107E0
:101F300080818111BCCF8FEF9FEF909350078093EA
:101F40004F0787CF9093500780934F0782CFE09140
:101F50007007F09171070580F681E02D80819181F5
:101F60009093500780934F076CCF4F925F926F9280
:101F70007F928F929F92AF92BF92CF92DF92EF9219
:101F8000FF920F931F93CF93DF934C016B015A0184
:101F90002901CA010E9457073C01892B09F45AC143
:101FA0008EE290E00E945707EC01892B09F44FC1A3
:101FB000788E6F8A81E0A81AB108A60CB71CC114EC
:101FC000D10409F449C1D6018C91898F8C91882361
:101FD00009F47EC011968C9111978A8F11968C917D
:101FE0001197882309F474C012968C9112978B8FE5
:101FF00012968C911297882309F46AC013968C91DB
:1020000013978C8F13968C911397882309F460C0D3
:1020100014968C9114978D8F14968C911497882315
:1020200009F456C015968C9115978E8F15968C9144
:102030001597882309F44CC016968C9116978F8FAC
:1020400016968C911697882309F442C017968C91A6
:10205000179788A317968C9117978823C9F118961C
:102060008C91189789A318968C911897882381F1E1
:1020700019968C9119978AA319968C911997882390
:1020800039F11A968C911A978BA31A968C911A97FC
:102090008823F1F01B968C911B978CA31B968C9137
:1020A0001B978823A9F01C968C911C978DA31C96D6
:1020B0008C911C97882361F01D968C911D978EA39F
:1020C0001D968C911D97882319F01E968C918FA3D5
:1020D00018A6083008F0B5C00E8B6E01B2E0CB0E2A
:1020E000D11CC6010E94DB06CE010C960E94DB06C5
:1020F000D987C88788E090E0801B91099D878C87ED
:10210000DB8BCA8B84E0FE01B996DF011D928A95B4
:10211000E9F71DA6A201B401C5010E941E0899831A
:102120008883E114F10419F0F701D183C0830FB65D
:10213000F8940F9280915A078F5F80935A0780918D
:10214000CC079091CD07892B89F08091560781119A
:102150003CC0E091CC07F091CD078E899689891714
:10216000A8F1D093CD07C093CC0730C0D093CD0752
:10217000C093CC0780915A07813039F504E817E005
:10218000C8010E94CD06075F1F4FF7E00C3C1F07F8
:10219000B9F78BE797E00E94CD0682E797E00E94AF
:1021A000CD0685E697E00E94CD068CE597E00E947B
:1021B000CD068BE797E0909371078093700782E7D5
:1021C00097E090936F0780936E078E8990915107E7
:1021D0009F5F9093510790915707981778F190E07F
:1021E0009C01220F331F220F331F220F331F820F38
:1021F000931FB6018C57984F0E94DF060F900FBEB9
:1022000080915607882341F0E091CC07F091CD07EB
:1022100096898E899817B8F081E0DF91CF911F9150
:102220000F91FF90EF90DF90CF90BF90AF909F9075
:102230008F907F906F905F904F9008958093570795
:10224000CECF07E049CF0E94670881E0E6CFC30107
:102250000E94EE078FEFE1CF198E3BCF0F931F93B4
:10226000CF93DF93EC010FB6F8940F92892B09F40A
:102270005EC08E010E5F1F4FC8010E9431078C891E
:102280009D89892B21F0CE010C960E943107809107
:1022900051078F5F809351078091CC079091CD07B4
:1022A000C817D907C9F180915A07815080935A07FE
:1022B0008F89988D0E94EE07CE010E94EE07E09173
:1022C0007007F09171078081811118C08FEF9FEF27
:1022D0009093500780934F070F900FBE8091560741
:1022E000882339F08091CC079091CD07C817D90782
:1022F00019F1DF91CF911F910F910895E09170072F
:10230000F09171070580F681E02D80819181909395
:10231000500780934F07E0CFB8018CE597E00E940B
:10232000DF0680915B078F5F80935B07D5CFC091FD
:10233000CC07D091CD079DCF0E946708DACFEF92EE
:10234000FF920F931F93CF93DF9385E590E00E9458
:1023500057078C01892B09F4D9C08EE290E00E94C6
:102360005707EC01892B09F4C8C0188F0F8B89E43B
:10237000898F84E48A8F8CE48B8F85E48C8F1D8E0B
:1023800018A61E8A7E0182E0E80EF11CC7010E9499
:10239000DB06CE010C960E94DB06D987C88788E051
:1023A00090E09D878C87DB8BCA8B84E0FE01B99619
:1023B000DF011D928A95E9F71DA640E050E06EEB23
:1023C0007EE0C8018C5A9F4F0E941E089983888323
:1023D000D0934E07C0934D070FB6F8940F9280919B
:1023E0005A078F5F80935A078091CC079091CD0751
:1023F000892B89F08091560781113CC0E091CC0770
:10240000F091CD078E8996898917A8F1D093CD07D1
:10241000C093CC0730C0D093CD07C093CC07809138
:102420005A07813039F504E817E0C8010E94CD064B
:10243000075F1F4FB7E00C3C1B07B9F78BE797E02E
:102440000E94CD0682E797E00E94CD0685E697E0E0
:102450000E94CD068CE597E00E94CD068BE797E0C1
:10246000909371078093700782E797E090936F07CE
:1024700080936E078E89909151079F5F90935107CB
:1024800090915707981798F190E09C01220F331F05
:10249000220F331F220F331F820F931FB7018C5758
:1024A000984F0E94DF060F900FBE80915607882339
:1024B00041F0E091CC07F091CD0796898E8998176D
:1024C000C8F0F8948FEF9FEF9093500780934F07D9
:1024D00081E0809356071092590710925807DF91B8
:1024E000CF911F910F91FF90EF900C942F08809344
:1024F0005707CACF0E946708E4CFC801DF91CF9188
:102500001F910F91FF90EF900C94EE07DF91CF9108
:102510001F910F91FF90EF90089580914C078F5F6E
:1025200080934C070895FF920F931F93CF93DF93EF
:102530000FB6F8940F9280914C07815080934C070E
:1025400080914C07811177C080915A07882309F444
:1025500072C0C0E0D0E0FF24F39480916507882327
:10256000A1F1E0916A07F0916B07C681D781CE0196
:102570000C960E9431078E010E5F1F4FC8010E940A
:1025800031078E8990915707981710F48093570759
:1025900090E09C01220F331F220F331F220F331FA5
:1025A000820F931FB8018C57984F0E94DF06E0916D
:1025B000CC07F091CD079E898689981770F2F0922A
:1025C0005307809165078111CCCFCD2B69F0E09145
:1025D0007007F0917107808181113AC08FEF9FEFF2
:1025E0009093500780934F07C0915407D09155079F
:1025F0002097E9F011E00BC08091540790915507A6
:1026000001969093550780935407219761F080912C
:102610004C078111F1CF0E94EA0E8823B1F3109389
:1026200053072197A1F710925507109254078091F4
:102630005307811109C080E00F900FBEDF91CF9149
:102640001F910F91FF9008950E94670881E0F4CFD9
:10265000E0917007F09171070580F681E02D80818F
:1026600091819093500780934F07BECFEF92FF92D6
:102670000F931F93CF93DF93FC0190914C079F5FC3
:1026800090934C0740915807509159072081318110
:10269000E901C60FD71F4217530790F4C217D3079B
:1026A00090F0D183C0830E949312811102C00E94D6
:1026B0006708DF91CF911F910F91FF90EF900895E0
:1026C000C217D30718F04C175D0758F7D183C083A2
:1026D000E0905807F09059078701041B150B809173
:1026E000CC079091CD0702960E943107C00FD11FF1
:1026F000E091CC07F091CD07D383C283CE15DF05DF
:10270000C8F06091CC077091CD07809170079091CF
:1027100071076E5F7F4F0E94000780914F07909175
:102720005007C817D90708F0BECFD0935007C09301
:102730004F07B9CF6091CC077091CD0780916E079C
:1027400090916F076E5F7F4F0E940007ACCF0F9391
:102750001F93CF93DF93EC01892B39F40E94670814
:10276000DF91CF911F910F91089580914C078F5F5A
:1027700080934C0700915807109159078091CC071E
:102780009091CD0702960E943107C00FD11FE091B2
:10279000CC07F091CD07D383C2836091CC077091B1
:1027A000CD07C017D107E0F08091700790917107B5
:1027B0006E5F7F4F0E94000780914F0790915007F6
:1027C000C817D90720F4D0935007C0934F070E9431
:1027D0009312882319F2DF91CF911F910F910895E1
:1027E00080916E0790916F076E5F7F4F0E94000788
:1027F000EECF0FB6F8940F92809158079091590739
:102800000F900FBE089580914C07811102C00C9467
:10281000EA0E8091540790915507019690935507C1
:102820008093540780E0089580914C07811135C052
:10283000109253072091570701C02150822F90E03A
:10284000AC01440F551F440F551F440F551FFA018B
:10285000E80FF91FEC57F84F3081332371F3840FE1
:10286000951FDC01AC57B84F1196ED91FC91129772
:102870000280F381E02D1296FC93EE931197895715
:10288000984FE817F90769F0868197819093CD07F3
:102890008093CC0720935707089581E080935307D6
:1028A00008950280F381E02D1296FC93EE93119728
:1028B000EBCF0F931F93CF93DF93EB016091CC0786
:1028C0007091CD07645F7F4F0E9400070091580709
:1028D000109159078091CC079091CD0702960E94E4
:1028E0003107C00FD11FE091CC07F091CD07D38302
:1028F000C2836091CC077091CD07C017D107C0F09B
:1029000080917007909171076E5F7F4F0E94000762
:1029100080914F0790915007C817D90720F4D093A2
:102920005007C0934F07DF91CF911F910F910895EA
:1029300080916E0790916F076E5F7F4FDF91CF910F
:102940001F910F910C9400070F931F93CF93DF9368
:10295000DC011596ED91FC911697C681D7818E0109
:10296000045F1F4FC8010E94310780914C078111FD
:1029700029C00A501109C8010E9431078E8990911F
:102980005707981728F190E09C01220F331F220F60
:10299000331F220F331F820F931FB8018C57984F9C
:1029A0000E94DF06E091CC07F091CD079E898689D1
:1029B000891788F481E080935307DF91CF911F91AD
:1029C0000F910895B80185E697E00E94DF06EACFEF
:1029D00080935707D8CF80E0DF91CF911F910F915F
:1029E000089520915207FC012083209158073091CF
:1029F0005907328321830895FC010FB6F8940F9292
:102A00002091580730915907818192814091520756
:102A10005081541719F02817390748F4281B390B2F
:102A2000DB018D919C9111972817390738F0DB0154
:102A30001D921C9281E00F900FBE0895821B930B94
:102A40008D939C9380915207808380915807909139
:102A500059079283818380E00F900FBE089581E033
:102A6000809353070895CF93DF93CDB7DEB7EA97EE
:102A70000FB6F894DEBF0FBECDBF7C01892B09F4E1
:102A800070C040E860E072EC81E090E00E94610577
:102A90003C018E010F5F1F4F89E3882E81E0982E45
:102AA00092E3B92E2FE1C22E21E0D22E39C045E0AB
:102AB00050E0BE016D5C7F4FF701808191810E94E3
:102AC0009C0B0E9419089F938F938EA98F938DA9B9
:102AD0008F938CA98F938BA98F9388AD8F938FA998
:102AE0008F93DF92CF921F92BF921F930F930E94FA
:102AF000882422E030E042E350E0B801C3010E94A4
:102B0000B7050FB6F894DEBF0FBECDBF0E94F91314
:102B10009AAF89AF64E670E0CE01C9960E94361381
:102B2000F701808191810E94B60E8111C0CF0E9471
:102B300019089F938F939F928F921F92BF921F931A
:102B40000F930E94882422E030E042E350E0B80175
:102B5000C3010E94B7050FB6F894DEBF0FBECDBF0C
:102B6000D5CF80E090E00E942E118BCF6F927F92A4
:102B70008F929F92AF92BF92CF92DF92EF92FF928D
:102B80000F931F93CF93DF9300D0CDB7DEB7823082
:102B900009F4D1C0833009F48FC08130A9F08AE0F4
:102BA00090E00E94A7130F900F90DF91CF911F919B
:102BB0000F91FF90EF90DF90CF90BF90AF909F90DC
:102BC0008F907F906F90089563E0862E912C8E01F8
:102BD0000F5F1F4F78E1672EECE07E2EF3E2CF2EE1
:102BE000AEE0DA2EB0E2AB2E80E1B82E53E0E52E57
:102BF000F12C0E94F9139A8389830FB6F8940F92EF
:102C0000539A6092B3007092B4001092B200109286
:102C10007000C092B000D092B1000F900FBE6EE174
:102C200070E0C8010E9436130E94F9139A838983C9
:102C30000FB6F8940F92539AA092B300B092B400DA
:102C40001092B20010927000C092B000D092B10009
:102C50000F900FBE64E170E0C8010E9436130E941D
:102C6000F9139A8389830FB6F8940F921092B100EA
:102C70000F900FBE68E270E0C8010E94361381E039
:102C8000E81AF10809F0B5CF0E94F9139A838983F5
:102C90006CE370E0C8010E94361381E0881A910845
:102CA00009F0A4CF0E94F9139A8389836EEE72E033
:102CB000C8010E94361377CF85E0E82EF12C8E01F3
:102CC0000F5F1F4F94E1A92E2AE0B22E33E2C32EEC
:102CD0004EE0D42E0E94F9139A8389830FB6F8949C
:102CE0000F92539AA092B300B092B4001092B20027
:102CF00010927000C092B000D092B1000F900FBE41
:102D000062E370E0C8010E9436130E94F9139A83AF
:102D100089830FB6F8940F921092B1000F900FBEF6
:102D200062E370E0C8010E94361381E0E81AF108FE
:102D300009F0D0CF38CF0E94F9139A8389830FB658
:102D4000F8940F92539A84E18093B3008AE08093C1
:102D5000B4001092B2001092700003E20093B00031
:102D60001EE01093B1000F900FBE68EE73E0CE012D
:102D700001960E9436130E94F9139A8389830FB635
:102D8000F8940F92539A80E28093B30080E180938D
:102D9000B4001092B200109270000093B000109333
:102DA000B1000F900FBE68EE73E0CE0101960E9455
:102DB00036130FB6F8940F921092B1000F900FBE19
:102DC000F2CEEC01892B91F480E090E00E942E116C
:102DD0000DC08B81811116C08C81811116C08D812F
:102DE000811116C081E090E00E94A7138A81882398
:102DF00081F380E090E0FE01E80FF91F82810E94DC
:102E0000B615F0CF81E090E0F6CF82E090E0F3CF0E
:102E100083E090E0F0CFDF92EF92FF920F931F9349
:102E2000CF93DF937C01162FC42FD22ED02F042FE7
:102E30000D0F262F2D0D0E94D11E81110AC00BC02F
:102E400000E02D2D4C2F612FC7010E94311ECF5F56
:102E5000D150D111F5CFDF91CF911F910F91FF90FC
:102E6000EF90DF900895CF92DF92EF92FF920F9351
:102E70001F93CF93DF937C01D62FC42FD22E102F18
:102E8000C62EC20E042F010F2C2D0E94D11E8111BF
:102E900009C0DF91CF911F910F91FF90EF90DF90CC
:102EA000CF90089500E02D2D4C2F6D2FC7010E946B
:102EB000311E123070F31250CF5F111108C000E0C4
:102EC0002D2D4C2F6D2FC7010E94311EE2CF01E046
:102ED000212F4C2F6D2FC7010E94311E6FEF6C0DFB
:102EE000212F4C2FC7010E94311EC10FE8CFAF9296
:102EF000BF92CF92DF92EF92FF920F931F93CF93E7
:102F0000DF936C01DC019496BC9094979596DC91CC
:102F10009597ED91FC91A188CD2FE12CF12C08C063
:102F2000FFEFEF1AFF0ACA1510F5D601ED91FC91DB
:102F30002089F60102A113A1422F50E0440F551F32
:102F4000440F551F440F551F4E9DC0014F9D900DBE
:102F50005E9D900D1124080F191F4C2F60E0C601D3
:102F60000E946D21CF5F8C2F8D1B8B15C8F2DF91D6
:102F7000CF911F910F91FF90EF90DF90CF90BF9076
:102F8000AF900895CF93DF93EC016DA3E8A1F9A171
:102F90000190F081E02D0995E8A1F9A10280F3816B
:102FA000E02DCE01DF91CF910994CF93DF93EC0117
:102FB000FC01EC59FF4F8081882399F0E881F98169
:102FC00080894CA1849FA0011124440F551F440FF8
:102FD000551F440F551F60E070E08AA19BA10E941D
:102FE000812460E0CE01DF91CF910C94C2171F9332
:102FF000CF93DF93EC010E9477171DA18CA1180FCE
:10300000E881F9819189191700F5DE01AC59BF4FAC
:103010009C91911109C0612FCE010E94C21781E0DD
:10302000DF91CF911F9108954089489FA0011124FD
:10303000440F551F440F551F440F551F60E070E0AB
:103040008AA19BA10E948124E6CFCE010E94AE21DD
:1030500080E0DF91CF911F910895CF92DF92EF92A0
:103060000F931F93CF93DF936C01D62F142FC22F92
:10307000E0FC41C0E1FC30C0E3FC1FC0E2FC08C042
:10308000DF91CF911F910F91EF90DF90CF90089536
:10309000402F410F6C2F6D1BC6010E94A01E402FB8
:1030A0004D0F6C2F611BC601DF91CF911F910F91C6
:1030B000EF90DF90CF900C94A01E402F410F6C2F0B
:1030C0006D0FC6010E94A01E402F4D0F612F6C0F87
:1030D000C6010E94A01ED2CF402F411B6C2F6D1B3A
:1030E000C6010E94A01E402F4D1B6C2F611BC60104
:1030F0000E94A01EC1CF402F411B622F6D0F0E9466
:10310000A01E402F4D1B612F6C0FC6010E94A01EF8
:10311000B1CF8F929F92AF92BF92CF92DF92EF92F8
:10312000FF920F931F93CF93DF935C01C62E942ED3
:10313000C22F802E01E0020F040F21E0260F2C0F7A
:103140004C1B6C1B0E94D11E81110DC0DF91CF91D1
:103150001F910F91FF90EF90DF90CF90BF90AF90B5
:103160009F908F900895D1E0DC1BDC2ED194DD0C74
:10317000E82C092D2C2D4C2F60E0C5010E942D1844
:10318000CC2321F383E0F82E10E0D7FD04C0C1501A
:10319000D394D394DD0D1F5FDF0DE82C092D2C2D6A
:1031A0004C2F612FC5010E942D18F394F3941C1726
:1031B00060F3CCCF21E0FC0120838EEC97E00895F2
:1031C000CF92DF92EF92FF920F931F93CF93DF93F3
:1031D0001F92CDB7DEB77C016B0189019A014DEEDC
:1031E00050E268EB71E20E94CE22CE0101960E946D
:1031F000DA1886012CE83FE14981BC01C7010E9431
:1032000060200F90DF91CF911F910F91FF90EF9071
:10321000DF90CF900895FC01E60FF11D849190E0BE
:10322000982F88273196E4918E0F911D089580E0A4
:103230000895FC01849190E0982F88273196E491BD
:103240008E0F911D0895FC013296249130E0322FAB
:10325000222731968491A901480F511DCA01089572
:10326000213049F030F0223011F4841B0895861B80
:103270000895840F0895860F0895213049F030F0A5
:10328000223011F4861B0895840F0895860F089547
:10329000841B08952F923F924F925F926F927F927C
:1032A0008F929F92AF92BF92CF92DF92EF92FF9256
:1032B0000F931F93CF93DF93CDB7DEB761970FB610
:1032C000F894DEBF0FBECDBFDC01DA967C936E931F
:1032D000D9979C012F5B3F4F3C832B83F9011082D0
:1032E00039964081FB01C490483008F482C29B01AA
:1032F0002F5F3F4FDA963C932E93D997F901849133
:1033000068EF640F790181E090E001C0880F4A9571
:10331000EAF78150C822EB81FC816083DF96CC9272
:10332000DF97CD01855B9F4FFC017081F701849190
:1033300090E0062E02C0959587950A94E2F7162F25
:10334000170F183088F02F5F3F4FDA963C932E937B
:10335000D997F901449198E0961B01C0440F9A95C2
:10336000EAF7842B1850790141E050E001C0440F86
:103370007A95EAF7415048234987EB81FC81108315
:10338000CD01805C9F4FFC0140834D01F3E68F0E21
:10339000911CF40190811D01F3E42F0E311CF10109
:1033A0009083AD014C5B5F4F5E834D8381E0911153
:1033B00080E0ED81FE818083CD01845B9F4FFC0125
:1033C0007081F701849190E0012E02C09595879558
:1033D0000A94E2F7612F670F683088F02F5F3F4F44
:1033E000DA963C932E93D997F901449198E0911B7A
:1033F00001C0440F9A95EAF7842B68507901EB815C
:10340000FC81608341E050E08A01072E01C0000F7B
:103410000A94EAF7015080239FEF970F01C0440FF1
:103420009A95EAF7782E741ACD01835B9F4FFC01C1
:103430000081F701849190E0062E02C09595879552
:103440000A94E2F7102F160F183088F02F5F3F4FC5
:10345000DA963C932E93D997F901449198E0961B04
:1034600001C0440F9A95EAF7842B1850790141E086
:1034700050E0BA01002E01C0660F0A94EAF76150CD
:103480008623EB81FC811083015001C0440F0A9513
:10349000EAF79985941BAD01425B5F4FFA016081A9
:1034A000F701449150E0012E02C0559547950A94CA
:1034B000E2F7762F710F783078F0F9013196DA96CD
:1034C000FC93EE93D997249158E0511B01C0220F31
:1034D0005A95EAF7422B7850EB81FC81708321E00A
:1034E00030E0F901062E01C0EE0F0A94EAF7E15030
:1034F0004E23615001C0220F6A95EAF7421B488BA8
:103500001C140CF05CC17D015D01F5E4AF0EB11C33
:10351000D5011C91890F082F0195212F402F672D70
:10352000F70183AD0E943D19D82ED701DB968C930D
:10353000DB97212F402F672DDC968C910E9430194C
:10354000F70184AF113009F48AC108F490C1123038
:1035500009F479C1133009F08FC129852D0D982FF9
:103560009C1901E0080F81E0890F482F6D2DC701DC
:103570000E94D11E882309F422C1D701DD961C9236
:10358000DD97DE961C92DE97EB81FC813081D99627
:10359000ED91FC91DA97A701485B5F4F5D874C87FF
:1035A000B701675B7F4F7F876E87C7018E5B9F4F39
:1035B0009B878A8788E0582E232F3A822982AC8500
:1035C000BD854C91849190E0022E02C0959587951F
:1035D0000A94E2F7342F320F383078F03196D70161
:1035E000DA96FC93EE93D9976491952D921B01C0C6
:1035F000660F9A95EAF7862B385061E070E002C0BA
:10360000660F771F4A95E2F7AB0141504823488780
:10361000AB81BC813C93AE85BF857C91849190E069
:10362000032E02C0959587950A94E2F7672F630FE2
:10363000683090F03196D701DA96FC93EE93D997E3
:103640002491422F50E0952D931B9A0101C0220F27
:103650009A95EAF7822B685021E030E001C0220FF2
:103660007A95EAF7215028232F83EB81FC81608330
:10367000D701DD96BC91B98BF701D6AC7B2E1D2D01
:103680006884D701DF964C90DF97DB96CC90DB9770
:10369000DC960C91302E05C06D1468F16D181F5F1B
:1036A000712CD42CD718F5010081202F412F672DC4
:1036B0008C2D0E943D19282E202F412F672D832D00
:1036C0000E943019AA85BB859C919111E5CFED81AF
:1036D000FE819081D4019C932D2D6D1408F4262D2C
:1036E000482F622DC7010E94311EF70147ACC3ACC1
:1036F00034AC6D1498F6760CD701DD967C92DD978C
:10370000DE961C936F808C2DD32C4718641408F020
:1037100074C00D2DF5014080D12E242D412F672D31
:103720000E943D19C82E242D412F672D802F0E9405
:103730003019A981BA819C91F4019083042D262D22
:10374000482F6C2DC7010E94311E760CD701DD96E3
:103750007C92DD97DE961C93DE97EB81FC813081B5
:10376000D996ED91FC91DA97849190E0032E02C0F6
:10377000959587950A94E2F721E0230F283080F091
:103780003196D701DA96FC93EE93D9974491952D13
:10379000931B01C0440F9A95EAF7842B29EF230F5E
:1037A000AB81BC812C9380FD6ACFB9851B170CF4CB
:1037B00006CF29803A80F1018081D4018C938889D9
:1037C00061960FB6F894DEBF0FBECDBFDF91CF91EB
:1037D0001F910F91FF90EF90DF90CF90BF90AF902F
:1037E0009F908F907F906F905F904F903F902F9021
:1037F00008957B019B01642F86CDF5010081202F68
:10380000412F672D0E943D19C82E202F412F672D73
:103810008D2D0E943019A981BA819C91F401908369
:10382000242D482F6C2DC7010E94311E64181F5F84
:10383000712CD701DF964C90DF97DB968C91DB974C
:10384000DC96DC9062CF91E0392F3C1921E02D0D00
:103850004985941B01E0080F890FD30E86CEF985A8
:103860001F1B21E02D0D0C2D080FD10E7ECE2C2D0F
:103870002D0D0985080F79CE082F2D2D76CEEF92CC
:10388000FF920F931F93CF93DF93FC01C5A9D6A995
:1038900067966F3F710509F058F46136710508F4B9
:1038A0003BC0E75AFF4F80819181C80FD91F49C0A3
:1038B0008B01FC01E55AFF4F80819181C80FD91F10
:1038C0007E01C7010E941919C80FD91FC7010E94A4
:1038D0002319F4E0EF0EF11C8017910790F309C053
:1038E0000817190709F434C0FE013296E491CE0F8F
:1038F000D11DFE01849190E0982F88273196E491A4
:103900008E2B009769F780E090E0DF91CF911F91B7
:103910000F91FF90EF9008956134710590F0FC01D4
:10392000E95AFF4F80819181C80FD91F0AC0FE015B
:10393000249130E062177307A1F0FC018491C80F55
:10394000D11DCE010196FC0124912111F0CFDBCFD6
:10395000CE010396DF91CF911F910F91FF90EF90D1
:103960000895CE010296DF91CF911F910F91FF90A4
:10397000EF9008959F92AF92BF92CF92DF92EF9215
:10398000FF920F931F93CF93DF93EC01962EA42EFB
:1039900089010E94A0207801B12C6E0185E4C80E37
:1039A000D11CF70161917F01EA81FB81CE0109956C
:1039B0008C01019609F457C00E3F8FEF180789F369
:1039C000F6018081813009F446C0F0F1823099F12E
:1039D000833059F5EFA9F8ADCE010995992D980FCF
:1039E0008A2D9BAF8CAFB801CE010E943F1C00977F
:1039F00089F0BC01CE010E944A19F60190819130F4
:103A000071F09130A8F0923069F0933009F4A81A5F
:103A1000B80EC7CF80E0F6019081913091F7A80EE3
:103A2000B80EBFCF981AB80EBCCF8A2D992DD9CF1A
:103A3000980EB80EB6CFEFA9F8ADCE010995FA2DC4
:103A4000F81B8F2F992DCDCFEFA9F8ADCE01099599
:103A50008A0D992DC6CFEFA9F8ADCE010995992D04
:103A6000981B8A2DBECF8B2DDF91CF911F910F9187
:103A7000FF90EF90DF90CF90BF90AF909F90089510
:103A8000E6E9F0E2DC011396FC93EE9312970C94B6
:103A9000BA1C27E139E1FC0130AF27AB0895EF9262
:103AA000FF920F931F93CF93DF93DC01D5962D9157
:103AB0003C91D6972617370709F4B2C0EB017C0179
:103AC000FC0176AB65ABFB0184918D010A5B1F4F56
:103AD000D8018C933196E4911196EC931197FB01E8
:103AE0003296E4911296EC931297FB013396E4918F
:103AF0001396EC931397FB013496E4911496EC9390
:103B00001497FB013596E4911596EC931597FB01FC
:103B10003696E4911696EC931697FB013796E4914E
:103B20001796EC931797FB013896E4911896EC934F
:103B30001897FB013996E4911996EC931997FB01BC
:103B40003A96E4911A96EC931A97FB013B96E4910E
:103B50001B96EC931B97FB013C96E4911C96EC930F
:103B60001C97FB013D96E4911D96EC931D97FB017C
:103B70003E96E4911E96EC931E97FB013F96E491CE
:103B80001F96EC931F97FB017096E4915096EC936F
:103B900061E1CE010E940B19F801928B818B63E1E8
:103BA000CE010E940B19D80154969C938E93539783
:103BB00065E1CE010E940B19F801968B858BD70128
:103BC000D5968D919C91D697892B51F13D96808108
:103BD000E701C15ADF4F888331962081A05ABF4F39
:103BE0002C933A9690819923D9F0913001F1F70105
:103BF000E05BFF4F608132963081082E000C990BFC
:103C0000432F032E000C550B460F511D67FD5A958F
:103C10008417950714F4630F688332170CF43C93F0
:103C2000DF91CF911F910F91FF90EF9008953997F9
:103C3000908189170CF49883F701EA5AFF4F80812D
:103C4000821774F78C93ECCF0F93DC0198963C911C
:103C50009897431B5E96ED91FC915F9709950F91A4
:103C600008950F93FC01E35AFF4F3081332309F489
:103C70005AC0222309F457C0223008F456C002303B
:103C800029F1033009F051C04F5F421BFC0135A5FB
:103C9000631708F448C036A5631708F044C030A97C
:103CA00057A5240F241708F044C0431708F040C05C
:103CB0002FEF230F5217B8F5451708F4452F231798
:103CC00008F4322F232F241B01E024C06F5F621BF6
:103CD000DC019F963C919F97431728F1D0963C9129
:103CE000D097431700F59E963C919E979D965C91C8
:103CF000260F261710F56317F8F42FEF230F52172E
:103D000090F4651708F4652F231708F4322F232F3A
:103D1000261B00E0DC019096ED91FC9191970480C8
:103D2000F581E02D09950F91089500FDAFCFD0CF1B
:103D3000452F4317C0F7BECF652F6317A0F7DFCF1E
:103D40000F93FC0187A5481738F180A9481720F583
:103D500085A5681708F126A56217F0F4DF01A35ABC
:103D6000BF4F9C919923C1F091E0960F9617B0F048
:103D7000891790F4382F861708F4362F921708F415
:103D8000292FCF01231B00A0F1A1E02D0480F58194
:103D9000E02D00E0632F09950F9108959FEF920F9A
:103DA000E7CF0F93FC0187A590A9491758F4801716
:103DB00058F485A596A5691760F4821760F481E030
:103DC0000F910895801710F4041798F380E00F9175
:103DD00008958217D8F781E02617C0F70F9108954C
:103DE000BF92CF92DF92EF92FF920F931F93CF93E8
:103DF000DF936C01C62F142FF22E261708F04FC048
:103E0000E62EE21A011708F04FC0B12EB01AEB14DB
:103E100008F060C0812F1F2DF82E8C2FC02F082F87
:103E200081E0DB2DD695101708F44DC00FEF9FEF02
:103E3000F91609F44CC0FC16D0F0882339F14C2F48
:103E4000612FC6010E94A01EDE19D7FD0BC0CF5FF7
:103E5000FC1668F04C2F612FC6010E94A01EDE19CF
:103E6000D7FFF5CF100FDB0DCF5FFC1698F7DF9172
:103E7000CF911F910F91FF90EF90DF90CF90BF9067
:103E80000895100FDB0DCF5FFC1688F3412F6C2FC8
:103E9000C6010E94A01EDE19D7FFF5CFF2CFE22E99
:103EA000E61A011708F4B1CFB02EB11AEB1460F185
:103EB000FC16F0F08B2DBE2CE82E80E0DB2DD69585
:103EC000101708F0B3CF01E09FEFF912B4CF9EEFC7
:103ED000F92EB1CFFC1670F7DE2DD6958E2DEB2C7A
:103EE000B82E102F8C2FCF2DF82E80E001E0ECCFD4
:103EF000DE2DD6958E2DEB2CB82E102F8C2FCF2D9E
:103F0000F82E80E00FEF93CF8F2DF02E082F8C2FFF
:103F1000C12F182F81E085CFFF920F931F93CF936E
:103F2000DF93DC01342F377081E090E0032E01C075
:103F3000880F0A94EAF7182FED01CD59DF4F588109
:103F40005230E8F170E050E0487F92968D919C915C
:103F50009397ED91FC911197F088F49EF001F59EF6
:103F6000F00D1124E60FF11DE80FF91F011117C024
:103F70008081872B812781932150D1F7DF91CF91C9
:103F80001F910F91FF90089596968C919697E80F48
:103F9000F11D8881823078F011E0222379F390813D
:103FA000972B912790833F5F37702150332361F324
:103FB000770F110FF2CF813041F471E0EECF782FFF
:103FC000513009F0C0CF10E0BECF11E071E0E5CF75
:103FD0000F930E94241E0F910895FC01A081B181CE
:103FE00064A1862F880F880F880F87A350969C9115
:103FF0005097903208F09FE1990F990F990F96A36F
:1040000055A1952F990F990F990F90A751964C9103
:104010005197252F30E0260F311D642F70E0621775
:1040200073072CF4842F851B880F880F880F91A7A6
:10403000890F82A780EF83A754968D919C91559705
:10404000813F910508F483A756968C9184A7089523
:104050000F93CF93DF93EC011DA68BA58EA789A5A7
:104060008FA78AA588AB0CA92AA94BA969A9CE015B
:104070000E94D11E8823E9F081E0FE01E35AFF4F40
:10408000808389A99DA5981708F48DA78AA99EA564
:10409000891708F48EA78BA99FA5981708F48FA7F6
:1040A0008CA998A9891708F488ABDF91CF910F915B
:1040B0000895C35ADF4F1882DF91CF910F91089571
:1040C0000F931F93CF93DF93EC011EAA1DAA3F8F7E
:1040D0002E8F7BA36AA34CA31DA2FC01EE5BFF4FB6
:1040E0001082B0961082319681E080833196808371
:1040F00019A308A3D801ED91FC91CE01099519AA45
:104100001BAA8FEF8AAB8CABE8A1F9A10280F381E7
:10411000E02DCE010995CE010E94491DCB5BDF4FFA
:104120001882DF91CF911F910F910895611103C003
:104130008FEF9FEF08956A30D9F3862F90E00895AE
:10414000FC01108E0895462FDC011896ED91FC912C
:10415000199720E030E060E209949A01DC0118969A
:10416000ED91FC911997462F67E10994CF93DF9366
:104170001F92CDB7DEB76983AE014F5F5F4F61E03D
:104180000E94AD200F90DF91CF910895462FDC0162
:104190001696ED91FC91179720E030E065E10994C7
:1041A0009A01DC011696ED91FC911797462F67E175
:1041B0000994DC011696ED91FC91179720E030E010
:1041C00040E068E10994DC011696ED91FC911797A7
:1041D00020E030E040E069E10994EF92FF920F9314
:1041E0001F93CF93DF938C01C62FD42F79016631B3
:1041F00029F0A0F4643109F16531A1F461E0C8014E
:104200000E94A3206D2FC8010E94B62081E0DF919B
:10421000CF911F910F91FF90EF900895673151F06A
:104220006A3158F080E0DF91CF911F910F91FF909C
:10423000EF90089560E00E94A320D8011896ED91B8
:10424000FC91199797014D2F6C2FC801DF91CF91E9
:104250001F910F91FF90EF900994FC01718360838F
:10426000FB012289FC01248B0895CF93DF93EC019D
:10427000EA85FB8520E030E040E068E20995EE81C8
:10428000FF8120E030E040E064E1CE01099541E0AB
:104290006BE4CE010E94C622E881F981448169E283
:1042A000CE010E94C62240E06BE4CE010E94C622ED
:1042B000E881F981448169E2CE010E94C62241E091
:1042C0006BE4CE010E94C622E881F981458169E252
:1042D000CE01DF91CF910C94C6220F931F93CF9301
:1042E000DF9300D000D01F92CDB7DEB76C834D8333
:1042F0002B831A830983DC011496ED91FC911597A9
:104300009E012F5F3F4F41E06FE009950F900F90A6
:104310000F900F900F90DF91CF911F910F91089503
:10432000DC011496ED91FC91159720E030E040E01F
:1043300069E00994DC011496ED91FC91159720E059
:1043400030E040E06AE00994462FDC011496ED91DC
:10435000FC91159720E030E06EE00994DC011496A2
:10436000ED91FC91159720E030E040E060E1099488
:104370008F929F92AF92BF92CF92DF92EF92FF9275
:104380000F931F93CF93DF9300D0CDB7DEB78C018F
:10439000842E59016B3009F4E5C058F06F3009F4F0
:1043A00075C0603109F462C06E3009F4CDC080E0A0
:1043B0005EC0693009F4D0C06A30C9F70E94352167
:1043C000C8010E94D9206FE5C8010E94C620C8011B
:1043D0000E94E32041E069E2C8010E94C622F12C5C
:1043E000EE24EA94C8010E94D92062E6C8010E9426
:1043F000C620C8010E94E320C8010E94D9206F2D69
:10440000C8010E94C620C8010E94E320EA82C801B8
:104410000E94D920AE014E5F5F4F61E0C8010E944B
:10442000D020C8010E94E320F39488E0F812DACF8C
:10443000C8010E94D92064E8C8010E94C620C801B2
:104440000E94E320C8010E94D92064E2C8010E94B2
:10445000C620C8010E94E320C8010E94D92060E460
:10446000C8010E94C620C8010E94E32081E00F908D
:104470000F90DF91CF911F910F91FF90EF90DF9000
:10448000CF90BF90AF909F908F900895F901F380E7
:10449000FF0CFF0CFF0CFC018489F80EC8010E9480
:1044A000D92064E6C8010E94C620C8010E94E3200A
:1044B000C8010E94D9206F2D6F77C8010E94C620C5
:1044C000C8010E94E320C8010E94D92060E6C8010B
:1044D0000E94C620C8010E94E320F50184818F70EC
:1044E000F82EC8010E94D9206F2DC8010E94C62055
:1044F000C8010E94E320F5018281E080F180F8E0AC
:104500008F9F600111248823D9F0912C80E090E0E6
:10451000F701E80FF91F80818983C8010E94D92023
:10452000AE014F5F5F4F61E0C8010E94D020C8011B
:104530000E94E3209394892D90E08C159D0544F30F
:104540008A948110D8CF92CF0E94D920682D60958F
:1045500062956F70606484CF6AE471E00E942D21DF
:1045600081E085CF0E94D92064E2C8010E94C62064
:10457000C8010E94E320C801882021F00E94D920B0
:1045800060E06ECF0E94D92060E46ACFDC011A9609
:10459000ED91FC911B9720E030E009940F931F935D
:1045A000FC0111821082158A108E148615861686DB
:1045B00017868FEF868B828F75836483578346833C
:1045C0003187208713870287CF011F910F910C94A9
:1045D00090210F931F93CF93DF93EC01683109F47F
:1045E00079C0A0F46431C1F16731E9F4442341F0AA
:1045F000F90181918EBD0DB407FEFDCF4150C9F781
:1046000081E0DF91CF911F910F910895693189F079
:10461000603249F46AE40E94C62281E0DF91CF91C2
:104620001F910F91089580E0DF91CF911F910F911D
:104630000895A881B981EA85FB8520E030E01396D2
:104640004C916CE20995E881F981418169E4CE01E0
:104650000E94C62281E0D5CF259A239A80E58CBDA1
:1046600008811981F8018485823009F478C083308B
:1046700009F447C0813009F447C0F801208531852D
:104680004285538560E074E284EF90E00E94282424
:10469000203131054105510509F453C0D8F12034CA
:1046A00031054105510509F460C020383105410547
:1046B000510509F443C0203231054105510541F44B
:1046C0008DB581608DBD8CB582608CBD08811981EE
:1046D000F801BBCFE881F981408169E40E94C622DC
:1046E000A881B981EA85FB8520E030E012964C91E3
:1046F0006CE2CE01099581E0DF91CF911F910F917E
:1047000008958CB588608CBD8CB584608CBD0881A3
:104710001981B3CF2230310541055105C9F0283048
:10472000310541055105A1F68DB581608DBD8CB572
:1047300081608CBD08811981F80187CF8CB58260BA
:104740008CBD8CB581608CBD08811981F8017DCF4D
:104750008DB581608DBD08811981F80176CF8CB54A
:1047600088608CBD0881198188CF8CB582608CBD32
:1047700008811981F80169CF6A3261F068F16B3202
:1047800069F06C32F1F481E0089585E38A95F1F7E0
:10479000000041504111F9CF81E00895242F30E00D
:1047A000A4E6B0E00E94692428EF30E040E050E049
:1047B0000E942824233238F7822F0197F1F781E0F5
:1047C0000895693439F1D0F06A34A1F06B34E9F41A
:1047D000442321F1289AD7CF693241F0F2CFEFE993
:1047E000FFE03197F1F700C0000041504111F7CFD1
:1047F00081E008954423A1F0299AC5CF683229F4B5
:10480000229A219A209A81E0089521E0FC01218FCB
:1048100081E00895442331F02A9AB5CF2898B3CF88
:104820002998B1CF2A98AFCFAA1BBB1B51E107C073
:10483000AA1FBB1FA617B70710F0A61BB70B881F30
:10484000991F5A95A9F780959095BC01CD010895BF
:10485000A1E21A2EAA1BBB1BFD010DC0AA1FBB1F84
:10486000EE1FFF1FA217B307E407F50720F0A21BF6
:10487000B30BE40BF50B661F771F881F991F1A9463
:1048800069F760957095809590959B01AC01BD018D
:10489000CF010895052E97FB1EF400940E94612419
:1048A00057FD07D00E94282407FC03D04EF40C9437
:1048B000612450954095309521953F4F4F4F5F4F64
:1048C000089590958095709561957F4F8F4F9F4F7C
:1048D0000895A29FB001B39FC001A39F700D811DD9
:1048E0001124911DB29F700D811D1124911D0895F9
:1048F000FB01DC0102C001900D9241505040D8F7FD
:104900000895DC0101C06D9341505040E0F70895D7
:10491000AEE0B0E0EEE8F4E20C9457270D891E8972
:104920008F89988D26E02C831A83098397FF02C014
:1049300080E090E801979E838D83AE01455E5F4FD6
:10494000698D7A8DCE0101960E94B8244D815E81D9
:1049500057FD0AC02F813885421753070CF49A017E
:10496000F801E20FF31F10822E96E4E00C947327F7
:10497000ABE0B0E0EEEBF4E20C9449276C017B0174
:104980008A01FC0117821682838181FFCCC1CE018E
:1049900001963C01F6019381F70193FD859193FF08
:1049A00081917F01882309F4BAC1853239F493FDDE
:1049B000859193FF81917F01853229F4B60190E0C2
:1049C0000E94AF26E7CF912C212C312CFFE1F3156B
:1049D000D8F08B3279F038F4803279F08332A1F458
:1049E000232D20611DC08D3261F0803369F4232DA9
:1049F000216016C0832D8260382EE32DE4603E2EA8
:104A00002AC0F32DF8601DC037FC2DC020ED280F03
:104A10002A3040F08E32B9F436FC81C1232D206457
:104A2000322E19C036FE06C08AE0989E200D112451
:104A3000922E11C0EAE02E9E200D1124222EF32D7D
:104A4000F0623F2E08C08C3621F4832D8068382E0A
:104A500002C0883641F4F70193FD859193FF81915F
:104A60007F018111B3CF982F9F7D9554933028F407
:104A70000C5F1F4F9FE399830DC0833631F083375E
:104A800071F0833509F059C021C0F8018081898314
:104A90000E5F1F4F88248394912C530113C028016B
:104AA000F2E04F0E511CF801A080B18036FE03C029
:104AB000692D70E002C06FEF7FEFC5010E94A42650
:104AC0004C018201F32DFF773F2E16C0280122E012
:104AD000420E511CF801A080B18036FE03C0692D42
:104AE00070E002C06FEF7FEFC5010E9499264C0174
:104AF000F32DF0683F2E820133FC1BC0822D90E025
:104B000088169906B0F4B60180E290E00E94AF26C4
:104B10002A94F4CFF50137FC859137FE81915F012E
:104B2000B60190E00E94AF2621102A9421E0821A5B
:104B300091088114910471F7E8C0843611F0893628
:104B400041F5F80137FE07C0608171818281938150
:104B50000C5F1F4F08C060817181072E000C880B0D
:104B6000990B0E5F1F4FF32DFF763F2E97FF09C065
:104B700090958095709561957F4F8F4F9F4FF0680E
:104B80003F2E2AE030E0A3010E94EB26882E8618F3
:104B900045C0853731F4232D2F7EB22E2AE030E038
:104BA00025C0932D997FB92E8F36C1F018F4883522
:104BB00079F0B5C0803719F0883721F0B0C0E92FFF
:104BC000E061BE2EB4FE0DC0FB2DF460BF2E09C007
:104BD00034FE0AC0292F2660B22E06C028E030E03D
:104BE00005C020E130E002C020E132E0F801B7FE6C
:104BF00007C060817181828193810C5F1F4F06C065
:104C00006081718180E090E00E5F1F4FA3010E94E0
:104C1000EB26882E8618FB2DFF773F2E36FE0DC023
:104C2000232D2E7FA22E891458F434FE0BC032FCA3
:104C300009C0832D8E7EA82E05C0B82CA32C03C0DE
:104C4000B82C01C0B92CA4FE0FC0FE01E80DF11D67
:104C50008081803321F49A2D997EA92E09C0A2FE6D
:104C600006C0B394B39404C08A2D867809F0B39437
:104C7000A3FC11C0A0FE06C0B21488F4280C922C2C
:104C80009B180EC0B21460F4B60180E290E00E945E
:104C9000AF26B394F7CFB21418F42B1802C0982C97
:104CA000212CA4FE10C0B60180E390E00E94AF2644
:104CB000A2FE17C0A1FC03C088E790E002C088E50F
:104CC00090E0B6010CC08A2D867859F0A1FE02C092
:104CD0008BE201C080E2A7FC8DE2B60190E00E9469
:104CE000AF26891438F4B60180E390E00E94AF2625
:104CF0009A94F7CF8A94F301E80DF11D8081B601F3
:104D000090E00E94AF268110F5CF222009F442CE18
:104D1000B60180E290E00E94AF262A94F6CFF60119
:104D20008681978102C08FEF9FEF2B96E2E10C9472
:104D30006527FC010590615070400110D8F78095FF
:104D400090958E0F9F1F0895FC0161507040019057
:104D50000110D8F7809590958E0F9F1F08950F939F
:104D60001F93CF93DF93FB01238121FD03C08FEFBE
:104D70009FEF2CC022FF16C04681578124813581C8
:104D80004217530744F4A081B1819D012F5F3F4F2B
:104D9000318320838C93268137812F5F3F4F378368
:104DA000268314C08B01EC01FB010084F185E02D0A
:104DB0000995892BE1F6D80116968D919C9117974C
:104DC000019617969C938E931697CE01DF91CF9103
:104DD0001F910F910895FA01AA27283051F120312F
:104DE00081F1E8946F936E7F6E5F7F4F8F4F9F4F7F
:104DF000AF4FB1E03ED0B4E03CD0670F781F891FC1
:104E00009A1FA11D680F791F8A1F911DA11D6A0F8E
:104E1000711D811D911DA11D20D009F468943F9141
:104E20002AE0269F11243019305D3193DEF6CF0140
:104E30000895462F4770405D4193B3E00FD0C9F706
:104E4000F6CF462F4F70405D4A3318F0495D31FD73
:104E50004052419302D0A9F7EACFB4E0A6959795C6
:104E6000879577956795BA95C9F70097610571059C
:104E700008959B01AC010A2E0694579547953795E6
:104E80002795BA95C9F7620F731F841F951FA01D40
:104E900008952F923F924F925F926F927F928F92DE
:104EA0009F92AF92BF92CF92DF92EF92FF920F93B9
:104EB0001F93CF93DF93CDB7DEB7CA1BDB0B0FB6C3
:104EC000F894DEBF0FBECDBF09942A883988488880
:104ED0005F846E847D848C849B84AA84B984C88416
:104EE000DF80EE80FD800C811B81AA81B981CE0F0D
:104EF000D11D0FB6F894DEBF0FBECDBFED010895F2
:044F0000F894FFCF53
:104F0400DB054650533A2025640073657269616C71
:104F14000061646300616C61726D006775690056BD
:104F2400696E3A202534642C20583A202534642CA8
:104F340020593A202534642C20486561703A202594
:104F4400640A0D00ED1F2820E81F000128960202C4
:104F54002850404B4C0003001E64100800008000E1
:024F640040000B
:00000001FF
