:100000000C9434000C943E000C943E000C943E0082
:100010000C943E000C943E000C943E000C943E0068
:100020000C943E000C943E000C943E000C943E0058
:100030000C943E000C943E000C943E000C943E0048
:100040000C943E000C943E000C943E000C943E0038
:100050000C943E000C943E000C943E000C943E0028
:100060000C943E000C943E0011241FBECFEFD8E04C
:10007000DEBFCDBF0E9463000C9486000C9400008C
:10008000559A569A84B5806884BD84B5806284BDD3
:1000900084B5836084BD85B5826085BD089588235D
:1000A00029F05A9A5C985F9A289808955A985C9A11
:1000B0005F98289A08955A9A5C9A5F9A289A0895A8
:1000C00024982C9A08950E9460000E944000C0E885
:1000D0001C99FECF81E00E944F00C7BDC8BD2FEF25
:1000E00087EA91E6215080409040E1F700C000008F
:1000F0001C99FECF0E945B002FEF83ED90E321500F
:1001000080409040E1F700C00000E2CFF894FFCFBC
:00000001FF
