:100000000C9434000C943E000C943E000C943E0082
:100010000C943E000C943E000C943E000C943E0068
:100020000C943E000C943E000C943E000C943E0058
:100030000C943E000C943E000C943E000C943E0048
:100040000C943E000C943E000C943E000C943E0038
:100050000C943E000C943E000C943E000C943E0028
:100060000C943E000C943E0011241FBECFEFD8E04C
:10007000DEBFCDBF0E945E000C9474000C940000A3
:10008000559A569A84B5806884BD84B5806284BDD3
:1000900084B5836084BD85B5826085BD089588235D
:1000A00029F05A9A5C985F9A289808955A985C9A11
:1000B0005F98289A089524982C9A08950E945B00CE
:1000C0000E944000C0E81C99FECF81E00E944F00D2
:1000D000C7BDC8BD2FEF87EA91E621508040904010
:0C00E000E1F700C00000EFCFF894FFCF64
:00000001FF
