S01200004C65744361725475726E2E737265632E
S11300000C9434000C943E000C943E000C943E007E
S11300100C943E000C943E000C943E000C943E0064
S11300200C943E000C943E000C943E000C943E0054
S11300300C943E000C943E000C943E000C943E0044
S11300400C943E000C943E000C943E000C943E0034
S11300500C943E000C943E000C943E000C943E0024
S11300600C943E000C943E0011241FBECFEFD8E048
S1130070DEBFCDBF0E947D000C948A000C9400006A
S1130080559A569A84B5806884BD84B5806284BDCF
S113009084B5836084BD85B5826085BD0895249848
S11300A02C9A08955C9A5A9A5F9A289A08955A9AB3
S11300B05C985F98289A80E887BD88BD2FEF8BE411
S11300C09DE1215080409040E1F700C000000E9473
S11300D0520008955A985C9A5F9A289880E887BDE0
S11300E088BD2FEF8BE49DE1215080409040E1F7E3
S11300F000C000000E94520008950E944F000E9418
S113010040001C99FECF0E9457001C99FECF0E940C
S10B01106A00F7CFF894FFCF59
S9030000FC
