S01400004563686F54727941744361722E7372656387
S11300000C9434000C9451000C9468000C9451002E
S11300100C9451000C9451000C9451000C94510018
S11300200C9451000C9451000C9451000C94510008
S11300300C9451000C9451000C9451000C945100F8
S11300400C9451000C9451000C944B010C942D0110
S11300500C9451000C9451000C9451000C945100D8
S11300600C9451000C94510011241FBECFEFD8E022
S1130070DEBFCDBF11E0A0E0B1E0E4E1FBE002C0EF
S113008005900D92A031B107D9F721E0A0E1B1E0CC
S113009001C01D92A93DB207E1F70E9498000C949B
S11300A088050C940000219AE9E6F0E080818460E0
S11300B08083E99AEFE6F0E0808181608083E1E863
S11300C0F0E080818560808310928000B09A08956A
S11300D01F920F920FB60F9211248F939F934B9BF5
S11300E005C010928500109284000DC04B990BC07E
S11300F08091840090918500909311018093100168
S113010081E0809314019F918F910F900FBE0F9007
S11301101F90189529988AE08A95F1F700C0299ACA
S113012085E38A95F1F70000299810921401089547
S1130130CF93DF93CDB7DEB7E2970FB6F894DEBF67
S11301400FBECDBF0E945300789486E08093C20016
S113015080E18093C4001092C50082E08093C000C7
S113016088E98093C1000F2EF7E6CF2EFBE2DF2E45
S1130170F02D0F2EF0E0EF2EF1E0FF2EF02D0F2EDC
S1130180F2E3BF2EF02D8E010F5F1F4F0E948A00F5
S11301906091100170911101603721E0720788F4B9
S11301A080E090E00E94950126E933E44BE85FE3A8
S11301B00E94FB010E946601709313016093120177
S11301C004C0D0921301C0921201809113018F9345
S11301D0809112018F93FF92EF921F92BF921F930F
S11301E00F930E949002C8010E941D018FEF91EEAF
S11301F024E0815090402040E1F700C000000FB699
S1130200F894DEBF0FBECDBFC1CF909197019F5F21
S11302109F73209195019217E1F3E92FF0E0E756DF
S1130220FE4F80832FB7F89490939701E1ECF0E0B0
S11302308081806280832FBF0895CF93DF93EC0188
S11302402196FC018081882329F00E94050189916F
S11302508111FBCFDF91CF9108950F930FB7EF93E7
S1130260FF93E0919501F0919701E395EF73EF13FC
S113027005C0F091C100FF7DF093C100E0939501AA
S1130280F0E0E756FE4FE081E093C600FF91EF9166
S11302900FBF0F9118950F930FB79F939091C600BE
S11302A0EF93FF93E0919801F0919601E395EF7736
S11302B0FE1731F0E0939801F0E0EB5EFE4F90837F
S11302C0FF91EF919F910FBF0F9118950E94DA0152
S11302D088F09F5798F0B92F9927B751B0F0E1F003
S11302E0660F771F881F991F1AF0BA95C9F714C0B3
S11302F0B13091F00E94F401B1E008950C94F4013E
S1130300672F782F8827B85F39F0B93FCCF38695EB
S113031077956795B395D9F73EF490958095709548
S113032061957F4F8F4F9F4F0895E89409C097FBC5
S11303303EF490958095709561957F4F8F4F9F4FB8
S11303409923A9F0F92F96E9BB279395F6958795FC
S113035077956795B795F111F8CFFAF4BB0F11F4BF
S113036060FF1BC06F5F7F4F8F4F9F4F16C0882366
S113037011F096E911C0772321F09EE8872F762F9C
S113038005C0662371F096E8862F70E060E02AF0DD
S11303909A95660F771F881FDAF7880F96958795C9
S11303A097F9089557FD9058440F551F59F05F3F32
S11303B071F04795880F97FB991F61F09F3F79F083
S11303C087950895121613061406551FF2CF469505
S11303D0F1DF08C0161617061806991FF1CF869587
S11303E07105610508940895E894BB27662777276B
S11303F0CB0197F908950E940E020C947F020E948B
S1130400710238F00E94780220F0952311F00C94C8
S113041068020C946E0211240C94F5010E94D2011E
S113042070F3959FC1F3950F50E0551F629FF00143
S1130430729FBB27F00DB11D639FAA27F00DB11D5C
S1130440AA1F649F6627B00DA11D661F829F2227E5
S1130450B00DA11D621F739FB00DA11D621F839F6C
S1130460A00D611D221F749F3327A00D611D231F42
S1130470849F600D211D822F762F6A2F11249F5790
S113048050409AF0F1F088234AF0EE0FFF1FBB1F93
S1130490661F771F881F91505040A9F79E3F510552
S11304A080F00C9468020C94F5015F3FE4F3983EED
S11304B0D4F3869577956795B795F795E7959F5FFC
S11304C0C1F7FE2B880F911D9695879597F908958E
S11304D097F99F6780E870E060E008959FEF80ECF3
S11304E0089500240A941616170618060906089596
S11304F000240A9412161306140605060895092EFC
S11305000394000C11F4882352F0BB0F40F4BF2B6A
S113051011F460FF04C06F5F7F4F8F4F9F4F0895AA
S1130520AEE0B0E0E6E9F2E00C945F050D891E89C7
S11305308F89988D26E02C831A83098397FF02C044
S113054080E090E801979E838D83AE01455E5F4F06
S1130550698D7A8DCE0101960E94C0024D815E8123
S113056057FD0AC02F813885421753070CF49A01AE
S1130570F801E20FF31F10822E96E4E00C947B0541
S1130580ABE0B0E0E6ECF2E00C9451056C017B01C9
S11305908A01FC0117821682838181FFCCC1CE01BE
S11305A001963C01F6019381F70193FD859193FF38
S11305B081917F01882309F4BAC1853239F493FD0E
S11305C0859193FF81917F01853229F4B60190E0F2
S11305D00E94B704E7CF912C212C312CFFE1F315B5
S11305E0D8F08B3279F038F4803279F08332A1F488
S11305F0232D20611DC08D3261F0803369F4232DD9
S1130600216016C0832D8260382EE32DE4603E2ED7
S11306102AC0F32DF8601DC037FC2DC020ED280F33
S11306202A3040F08E32B9F436FC81C1232D206487
S1130630322E19C036FE06C08AE0989E200D112481
S1130640922E11C0EAE02E9E200D1124222EF32DAD
S1130650F0623F2E08C08C3621F4832D8068382E3A
S113066002C0883641F4F70193FD859193FF81918F
S11306707F018111B3CF982F9F7D9554933028F437
S11306800C5F1F4F9FE399830DC0833631F083378E
S113069071F0833509F059C021C0F8018081898344
S11306A00E5F1F4F88248394912C530113C028019B
S11306B0F2E04F0E511CF801A080B18036FE03C059
S11306C0692D70E002C06FEF7FEFC5010E94AC049A
S11306D04C018201F32DFF773F2E16C0280122E042
S11306E0420E511CF801A080B18036FE03C0692D72
S11306F070E002C06FEF7FEFC5010E94A1044C01BE
S1130700F32DF0683F2E820133FC1BC0822D90E054
S113071088169906B0F4B60180E290E00E94B7040E
S11307202A94F4CFF50137FC859137FE81915F015E
S1130730B60190E00E94B70421102A9421E0821AA5
S113074091088114910471F7E8C0843611F0893658
S113075041F5F80137FE07C0608171818281938180
S11307600C5F1F4F08C060817181072E000C880B3D
S1130770990B0E5F1F4FF32DFF763F2E97FF09C095
S113078090958095709561957F4F8F4F9F4FF0683E
S11307903F2E2AE030E0A3010E94F304882E86183D
S11307A045C0853731F4232D2F7EB22E2AE030E068
S11307B025C0932D997FB92E8F36C1F018F4883552
S11307C079F0B5C0803719F0883721F0B0C0E92F2F
S11307D0E061BE2EB4FE0DC0FB2DF460BF2E09C037
S11307E034FE0AC0292F2660B22E06C028E030E06D
S11307F005C020E130E002C020E132E0F801B7FE9C
S113080007C060817181828193810C5F1F4F06C094
S11308106081718180E090E00E5F1F4FA3010E9410
S1130820F304882E8618FB2DFF773F2E36FE0DC06D
S1130830232D2E7FA22E891458F434FE0BC032FCD3
S113084009C0832D8E7EA82E05C0B82CA32C03C00E
S1130850B82C01C0B92CA4FE0FC0FE01E80DF11D97
S11308608081803321F49A2D997EA92E09C0A2FE9D
S113087006C0B394B39404C08A2D867809F0B39467
S1130880A3FC11C0A0FE06C0B21488F4280C922C5C
S11308909B180EC0B21460F4B60180E290E00E948E
S11308A0B704B394F7CFB21418F42B1802C0982CE1
S11308B0212CA4FE10C0B60180E390E00E94B7048E
S11308C0A2FE17C0A1FC03C088E790E002C088E53F
S11308D090E0B6010CC08A2D867859F0A1FE02C0C2
S11308E08BE201C080E2A7FC8DE2B60190E00E9499
S11308F0B704891438F4B60180E390E00E94B70489
S11309009A94F7CF8A94F301E80DF11D8081B60122
S113091090E00E94B7048110F5CF222009F442CE62
S1130920B60180E290E00E94B7042A94F6CFF60163
S11309308681978102C08FEF9FEF2B96E2E10C94A2
S11309406D05FC010590615070400110D8F7809549
S113095090958E0F9F1F0895FC0161507040019087
S11309600110D8F7809590958E0F9F1F08950F93CF
S11309701F93CF93DF93FB01238121FD03C08FEFEE
S11309809FEF2CC022FF16C04681578124813581F8
S11309904217530744F4A081B1819D012F5F3F4F5B
S11309A0318320838C93268137812F5F3F4F378398
S11309B0268314C08B01EC01FB010084F185E02D3A
S11309C00995892BE1F6D80116968D919C9117977C
S11309D0019617969C938E931697CE01DF91CF9133
S11309E01F910F910895FA01AA27283051F120315F
S11309F081F1E8946F936E7F6E5F7F4F8F4F9F4FAF
S1130A00AF4FB1E03ED0B4E03CD0670F781F891FF0
S1130A109A1FA11D680F791F8A1F911DA11D6A0FBE
S1130A20711D811D911DA11D20D009F468943F9171
S1130A302AE0269F11243019305D3193DEF6CF0170
S1130A400895462F4770405D4193B3E00FD0C9F736
S1130A50F6CF462F4F70405D4A3318F0495D31FDA3
S1130A604052419302D0A9F7EACFB4E0A6959795F6
S1130A70879577956795BA95C9F7009761057105CC
S1130A8008959B01AC010A2E069457954795379516
S1130A902795BA95C9F7620F731F841F951FA01D70
S1130AA008952F923F924F925F926F927F928F920E
S1130AB09F92AF92BF92CF92DF92EF92FF920F93E9
S1130AC01F93CF93DF93CDB7DEB7CA1BDB0B0FB6F3
S1130AD0F894DEBF0FBECDBF09942A8839884888B0
S1130AE05F846E847D848C849B84AA84B984C88446
S1130AF0DF80EE80FD800C811B81AA81B981CE0F3D
S1130B00D11D0FB6F894DEBF0FBECDBFED01089521
S1070B10F894FFCF83
S1130B1444697374616E63653A2025640A0D0000A8
S9030000FC
