:100000000C9455030C9472030C9472030C947203B9
:100010000C9472030C9472030C9472030C9472038C
:100020000C9472030C9472030C9472030C9472037C
:100030000C9472030C9472030C9472030C9472036C
:100040000C9472030C9472030C9464070C9446078E
:100050000C9472030C940C070C9472030C947203AE
:100060000C9472030C947203BF0203020303010198
:1000700004040600FF05FF05FF010602090624200F
:1000800006747C36002108749CAC0EC400220774F0
:100090008CA49D06230B748C241994645052002464
:1000A00009749C68119329022508748C34AAA6004F
:1000B000260A749C28892A5112022707749C2C272F
:1000C00002280774AC5A63022908748C306BCA008A
:1000D0002A09748C248AA64A0A2B08749C2C9AB28A
:1000E000182C07747C5A94012D07747C6487012EA8
:1000F00006747C5A0C2F0874AC2CAAE500300974E5
:100100009C284996520C3108749C482BAD0032094A
:10011000749C28C9A268053308748C2D0A131934FD
:1001200008748CA465AB023508748C25131319363A
:1001300009741C25939228063708748C2DAAE500B3
:100140003809741CA5544964003909749C2889B481
:1001500044063A0774DC1C8C013B0874DC1C8C32AE
:10016000003C0774ACC62A003D0774CC7587003E7E
:1001700007748CB054073F08740C31CA81184007CB
:10018000741CA547154109749C284996AE00420A83
:10019000740C2949A42491014309749C28A9255170
:1001A0000C4408740C29E945064508748C2593B263
:1001B000154608748C2593B21C4709741C254B9A6C
:1001C00054004808748CA465E90A4908748C292BEA
:1001D000AD004A0874ACAC528A014B09748CA4453A
:1001E0004A5A014C07748CAC6D054D08748C24B9C7
:1001F00074054E0874ACA4B2B4034F08749C28E98B
:1002000029065009740C2949A42C075109749C280B
:10021000E9294C005209740C2949A4A41553087407
:100220001C25ACC8005407748C296B065508748CC7
:10023000A45F56005608748CA49729065708748C3E
:10024000A4E552055808748CA4A9D20A5908748CE4
:10025000A4292B035A08748C2DAAAD005B08741CCA
:1002600029ABA9005C08748C2CACA5005D07740C4C
:10027000AD49065E08749C28C969005F06747CF26B
:10028000026007749C30A7016107745CA5930A6241
:1002900009748C4C4A5A64006308745C250B550041
:1002A000640874AC48E9A402650874DC2849341574
:1002B000660874ACD294C5006709745CA5A42512C5
:1002C000006808748C4C4A7A056908749C588B56EF
:1002D000006A0974AC1CC82A12006B09748C2C4982
:1002E000A4A4156C07740CAD69056D0874CC245971
:1002F000BA026E07744C29E9156F0874DC28698A04
:10030000017009744C2949A42C037108745CA593ED
:100310009600720874CC2491B21C7308745C454C2E
:1003200064007408749C68CAC214750774CCA4274E
:1003300015760774CCA4A718770874CCA465A90215
:10034000780974CC24CAA22405790974CCA4494B39
:1003500024007A0874CC2D8A56007B0874AC92561F
:100360004C007C07749CAC33007D09748C3093B2D4
:1003700028037E08749C44C96900A006747C36007A
:10038000A108749C1CC8CA00A208749C68C9A6185D
:10039000A30874AC9A544901A40974CC28919428F8
:1003A00004A509748C248AA62C06A608749C2C0724
:1003B000B218A709741C5312698904A806748C2406
:1003C00067A90A741C255A16295100AA08741CA58D
:1003D000A4AE00AB0974DC4489921C01AC08747CA7
:1003E00064CB2100AD07747C648701AE09741C6581
:1003F00058121D02AF06748C9D01B008749C2889A8
:100400007202B108749C688A5700B208740C2DCA35
:10041000740CB308740C2D0AA31CB40674AC3A1106
:10042000B50874CCA4172903B608749C41597A0402
:10043000B706747C2827B807747C421403B9087483
:100440009C48AB6300BA08749C2889E215BB097408
:10045000CC244A941C02BC09748CAC98245B00BD6B
:1004600009748CACA2459900BE09740C2D0A135B6B
:1004700000BF08749C1C884215C009748C304A92D5
:10048000A50AC10874AC9664A902C209740C2D4A6D
:1004900092A50AC309741C53922C5500C409748C8C
:1004A00024AA244B15C509749C2C4A92A50AC60A95
:1004B000749C214906A52202C709749C28A92551CC
:1004C0000DC808748C6C91B215C90874AC6491B2F3
:1004D00015CA08741C6591B215CB09748C2459A4F3
:1004E0006C05CC08748C6CCAA215CD0874AC64CAB7
:1004F000A215CE08749C68CAA215CF09748C24CAB0
:100500004A2B00D009748C29592A430AD109749CBA
:1005100044492E5500D209748C304A9A6200D307A0
:1005200074AC96A618D409749C2C4A9A6200D5081B
:10053000749C61E91403D609748C24AA34C500D7CD
:100540000974CC24AAE41000D809741CA5B2546420
:1005500000D909748C304A5A5600DA0774AC969662
:1005600015DB08749C38695901DC09748C244D5AD8
:100570005600DD0874AC3489B218DE09748C4C4A1C
:10058000122907DF0B749C2849A424593200E00982
:10059000748C30534A2A00E10874AC9A525201E23A
:1005A00008741C5929A900E309749C448994920A8F
:1005B000E409748C24564A2A00E509749C1C504AAC
:1005C0002A00E60874DC2159A211E70974DC282905
:1005D0004A1100E809748C304A124D05E90874ACE0
:1005E00096445301EA09740C2D4A124D05EB097427
:1005F0008C24AA249A0AEC08748C302BAD00ED08E8
:1006000074AC442BAD00EE09749C2889B26805EFE8
:1006100008748C24D5A215F009748C24CA94520C49
:10062000F109749C4449A4A415F209748C308B928E
:100630002806F30974AC5A94443100F409749C1CE4
:1006400088922806F508748C394AA218F609748C29
:10065000248E922806F707749C788E01F807745C44
:10066000A58B0CF909748C304A9A5400FA0774ACC3
:10067000962615FB08749C38695201FC09748C2479
:100680004D9A5400FD0974AC96644B2400FE0A7424
:100690008C2C939244CA00FF0A748C244D922D91A5
:1006A0000000000004FFFF00000011241FBECFEF78
:1006B000D8E0DEBFCDBF11E0A0E0B1E0E8E6F0E3B6
:1006C00002C005900D92A439B107D9F727E0A4E93B
:1006D000B1E001C01D92AF33B207E1F70E947F077E
:1006E0000C9432180C940000909396058093950515
:1006F0000895EF92FF920F931F93CF93DF9300D053
:1007000000D000D0CDB7DEB781E00E94DA0685E0E8
:100710000E94E5060E94F60680E00E94C5060E943F
:10072000FF068111FCCF0E94ED060E94FC06882383
:10073000E1F30E9405077C0181E00E94C5060E944A
:10074000FF068111FCCF0E94ED060E94FC06882363
:10075000E1F30E9405078C018EE00E94C5068FE937
:100760009FE00197F1F700C000000E94ED060E9493
:10077000FC068823E1F30E9405074A9921C0A09155
:100780009505B09196051B961C921B97FA82E982FB
:100790001C830B839E838D8386E0FE01319601903E
:1007A0000D928A95E1F726960FB6F894DEBF0FBE3C
:1007B000CDBFDF91CF911F910F91FF90EF900895E2
:1007C000A0919505B091960520E11B962C931B975F
:1007D000DDCFCF93DF93CDB7DEB769970FB6F8942F
:1007E000DEBF0FBECDBF9093960580939505892BF4
:1007F00001F189E1E0E0F1E0DE01119601900D9256
:100800008A95E1F7CE0101960E94F4102DEE31E1B8
:100810004DEF50E165E771E08DEE95E00E94220911
:100820008DEE95E00E94941360E08DEE95E00E94BD
:100830009E1369960FB6F894DEBF0FBECDBFDF9151
:10084000CF9108959F92AF92BF92CF92DF92EF9295
:10085000FF920F931F93CF93DF9300D000D000D06F
:10086000CDB7DEB7E0919505F091960586E0DE0103
:10087000119601900D928A95E1F709811A81EB801A
:10088000FC80CD80DE80C801969587958F5F9109A9
:1008900097FDE1C18F3F910511F00CF0AFC1AC01A4
:1008A0009701369527952F5F310937FDB0C12F3F4E
:1008B000310511F00CF09EC1A22E932EBB24B394EF
:1008C0000A9724F42A3031050CF4BEC1011522E048
:1008D000120708F4B7C182E51F928F935F934F937D
:1008E00089E191E09F938F931F9284E18F938BEB2B
:1008F00095E09F938F930E943A150FB6F894DEBF50
:100900000FBECDBFE11492E0F90608F499C182E46C
:100910001F928F939F92AF9289E291E09F938F9362
:100920001F9284E18F938FEC95E09F938F930E94A9
:100930003A150FB6F894DEBF0FBECDBFBB2009F449
:100940007DC189E51F928F9389E391E09F938F93F7
:100950001F928AE08F9383EE95E09F938F930E947E
:100960003A1516950795129502950F7001271F707D
:10097000012788E3800F80939705C7019695879597
:10098000929582958F7089279F7089279AE0980F9A
:100990009093980520E4200F2093990590939A0551
:1009A000045C00939B0526E0280F20939C05009390
:1009B0009D05825F80939E0500939F059093A005FF
:1009C00082E08093A1058FE08093A20584E080936C
:1009D000A505960140E050E06AE47DE280E090E009
:1009E0000E9405152093A6058BE78093A3058FE34E
:1009F000821B8093A4058DEE95E00E94500860E074
:100A00008DEE95E00E94820D61E08DEE95E00E94F2
:100A1000180F00919A0520919905409198056091D1
:100A200097058DEE95E00E94410F00919E05209163
:100A30009D0540919C0560919B058DEE95E00E947F
:100A4000410F0091A2052091A1054091A005609160
:100A50009F058DEE95E00E94CB0800E220E24AE07F
:100A60006CE38DEE95E00E94C10700E426E040E0D3
:100A70006AE78DEE95E00E94C1070091A6052091DE
:100A8000A5054091A4056091A3058DEE95E00E9417
:100A9000990768E670E08DEE95E00E94960D27EAD2
:100AA00035E045E060E08DEE95E00E94870D21EB9A
:100AB00035E04BE060E08DEE95E00E94870D2BEB7A
:100AC00035E041E160E08DEE95E00E94870D2FEC6E
:100AD00035E047E160E08DEE95E00E94870D23EE62
:100AE00035E04DE160E08DEE95E00E94870DE091EC
:100AF0009505F091960582850FB6F894DEBF0FBE7E
:100B0000CDBF09E027E14FE160E0882309F491C0FF
:100B10008DEE95E00E949907E0919505F09196057C
:100B2000838509E027E147E260E0882309F47CC07F
:100B30008DEE95E00E949907E0919505F09196055C
:100B40008485882309F467C008E027E14FE260E06C
:100B50008DEE95E00E949907E0919505F09196053C
:100B6000858509E027E147E360E081116FC08DEEE4
:100B700095E00E94C10761E08DEE95E00E94820D34
:100B800062E08DEE95E00E94180F22E431E046E22B
:100B900062E08DEE95E00E94870D28E431E04EE2A0
:100BA00062E08DEE95E00E94870D2EE431E046E391
:100BB00062E08DEE95E00E94870D24E531E04EE382
:100BC00062E08DEE95E00E94870D8DEE95E0269611
:100BD0000FB6F894DEBF0FBECDBFDF91CF911F914E
:100BE0000F91FF90EF90DF90CF90BF90AF909F90CC
:100BF0000C946508AA24AA94912C60CE4FEF50E083
:100C00009701369527952F5F310937FF50CE3195E3
:100C1000219531094CCE09E027E14FE260E08DEEED
:100C200095E00E94C10798CF8DEE95E00E94C10724
:100C300083CF8DEE95E00E94C1076ECF8EE482CE09
:100C400086E466CE8CE448CEB12C40CE8DEE95E0A5
:100C50000E94990790CF9195819591091BCE909311
:100C6000960580939505892B71F086E08093C200EC
:100C700080E18093C4001092C50082E08093C000A0
:100C800088E98093C10008950F931F93CF93DF935A
:100C9000CDB7DEB7E8970FB6F894DEBF0FBECDBF75
:100CA000E0919505F091960586E0DE01D3960190DE
:100CB0000D928A95E1F78EA98F938DA98F938CA9B8
:100CC0008F938BA98F9388AD8F938FA98F938AE58C
:100CD00091E09F938F931F9282E38F938E010F5F1A
:100CE0001F4F1F930F930E943A15C8010E942507BA
:100CF0000FB6F894DEBF0FBECDBFE8960FB6F894DE
:100D0000DEBF0FBECDBFDF91CF911F910F91089530
:100D100090939605809395050895E0919505F0913F
:100D20009605828581110CC08385811125C084853B
:100D3000811125C08585811125C01092B1000895CB
:100D400080E090E0E80FF91F828590E0880F991FFE
:100D5000009799F3539A8093B30096958795809363
:100D6000B4001092B2001092700083E28093B00041
:100D70008EE08093B100089581E090E0E3CF82E0BF
:100D800090E0E0CF83E090E0DDCFECE7F0E0908111
:100D9000907F282F2F70922B908321E030E0A901C3
:100DA00002C0440F551F8A95E2F7CA018F738093E2
:100DB0007E000895ECE7F0E02081207C30E4839F02
:100DC000C0011124822B80830895EAE7F0E090812E
:100DD000987F8770892B80830895EAE7F0E080810F
:100DE0008770886C8083109294010895EAE7F0E0A0
:100DF00080818F77808308958091940108958091F8
:100E00007A0086FB882780F90895109294018091DA
:100E100052069091530608951F920F920FB60F92AB
:100E200011248F939F9380917800909179009093F3
:100E300053068093520681E0809394019F918F9195
:100E40000F900FBE0F901F901895FC012081222358
:100E5000E1F0DC011196909196069F5F9F7380915F
:100E600095069817E1F3E92FF0E0EB5AF94F20834C
:100E70008FB7F894909396069091C10090629093EA
:100E8000C1008FBF2D912111E6CF08950F930FB7A9
:100E9000EF93FF93E0919506F0919606E395EF733B
:100EA000EF1305C0F091C100FF7DF093C100E09306
:100EB0009506F0E0EB5AF94FE081E093C600FF9110
:100EC000EF910FBF0F9118950F930FB79F939091CC
:100ED000C600EF93FF93E0915406F0911707E39556
:100EE000EF77FE1731F0E0935406F0E0E956F94F42
:100EF0009083FF91EF919F910FBF0F91189588E11B
:100F000097E00E94740388E197E00E94E90388E17A
:100F100097E00E94880688E197E00E942F06789467
:100F20000E9479030E9422040E948D060E944406BA
:100F3000F7CFDF92EF92FF920F931F93CF93DF9340
:100F40007C01162FC42FD22ED02F042F0D0F262F49
:100F50002D0D0E94220F81110AC00BC000E02D2D23
:100F60004C2F612FC7010E94780ECF5FD150D11155
:100F7000F5CFDF91CF911F910F91FF90EF90DF9010
:100F80000895CF92DF92EF92FF920F931F93CF932A
:100F9000DF937C01D62FC42FD22E102FC62EC20E67
:100FA000042F010F2C2D0E94220F811109C0DF9107
:100FB000CF911F910F91FF90EF90DF90CF90089508
:100FC00000E02D2D4C2F6D2FC7010E94780E12309E
:100FD00070F31250CF5F111108C000E02D2D4C2F7F
:100FE0006D2FC7010E94780EE2CF01E0212F4C2F18
:100FF0006D2FC7010E94780E6FEF6C0D212F4C2FC3
:10100000C7010E94780EC10FE8CFAF92BF92CF9276
:10101000DF92EF92FF920F931F93CF93DF936C01B8
:10102000DC019496BC9094979596DC919597ED9100
:10103000FC91A188CD2FE12CF12C08C0FFEFEF1A15
:10104000FF0ACA1510F5D601ED91FC912089F60131
:1010500002A113A1422F50E0440F551F440F551F0A
:10106000440F551F4E9DC0014F9D900D5E9D900DEC
:101070001124080F191F4C2F60E0C6010E9467134E
:10108000CF5F8C2F8D1B8B15C8F2DF91CF911F91F5
:101090000F91FF90EF90DF90CF90BF90AF900895A9
:1010A000FC01A081B18150969C9144A1949FA00124
:1010B0001124440F551F440F551F440F551F60E066
:1010C00070E082A193A10C943315CF93DF93EC01D0
:1010D0000E940508CE01DF91CF910C94A813CF9206
:1010E000DF92EF920F931F93CF93DF936C01D62F74
:1010F000142FC22FE0FC41C0E1FC30C0E3FC1FC054
:10110000E2FC08C0DF91CF911F910F91EF90DF902B
:10111000CF900895402F410F6C2F6D1BC6010E9488
:10112000E70E402F4D0F6C2F611BC601DF91CF9151
:101130001F910F91EF90DF90CF900C94E70E402F0E
:10114000410F6C2F6D0FC6010E94E70E402F4D0F0F
:10115000612F6C0FC6010E94E70ED2CF402F411BBA
:101160006C2F6D1BC6010E94E70E402F4D1B6C2F8C
:10117000611BC6010E94E70EC1CF402F411B622FA9
:101180006D0F0E94E70E402F4D1B612F6C0FC601A3
:101190000E94E70EB1CF8F929F92AF92BF92CF92F3
:1011A000DF92EF92FF920F931F93CF93DF935C0137
:1011B000C62E942EC22F802E01E0020F040F21E0D4
:1011C000260F2C0F4C1B6C1B0E94220F81110DC08F
:1011D000DF91CF911F910F91FF90EF90DF90CF9013
:1011E000BF90AF909F908F900895D1E0DC1BDC2ED4
:1011F000D194DD0CE82C092D2C2D4C2F60E0C5017D
:101200000E946F08CC2321F383E0F82E10E0D7FD75
:1012100004C0C150D394D394DD0D1F5FDF0DE82CC3
:10122000092D2C2D4C2F612FC5010E946F08F394BE
:10123000F3941C1760F3CCCF28E0FC01208385E9F0
:1012400091E00895CF92DF92EF92FF920F931F9358
:10125000CF93DF931F92CDB7DEB77C016B0189017D
:101260009A0147EE52E162EB73E10E94C814CE018D
:1012700001960E941C0986012DED3FE04981BC01C9
:10128000C7010E94B1100F90DF91CF911F910F9174
:10129000FF90EF90DF90CF900895FC01E60FF11DD5
:1012A000849190E0982F88273196E4918E0F911DBC
:1012B000089580E00895FC01849190E0982F88279C
:1012C0003196E4918E0F911D0895FC013296249180
:1012D00030E0322F222731968491A901480F511D09
:1012E000CA010895213049F030F0223011F4841BF6
:1012F0000895861B0895840F0895860F0895213060
:1013000049F030F0223011F4861B0895840F0895BF
:10131000860F0895841B08952F923F924F925F92FB
:101320006F927F928F929F92AF92BF92CF92DF92F5
:10133000EF92FF920F931F93CF93DF93CDB7DEB75A
:1013400061970FB6F894DEBF0FBECDBFDC01DA9611
:101350007C936E93D9979C012F5B3F4F3C832B83EB
:10136000F901108239964081FB01C490483008F49D
:1013700082C29B012F5F3F4FDA963C932E93D99701
:10138000F901849168EF640F790181E090E001C078
:10139000880F4A95EAF78150C822EB81FC8160836F
:1013A000DF96CC92DF97CD01855B9F4FFC0170816A
:1013B000F701849190E0062E02C0959587950A94D6
:1013C000E2F7162F170F183088F02F5F3F4FDA968D
:1013D0003C932E93D997F901449198E0961B01C054
:1013E000440F9A95EAF7842B1850790141E050E0B8
:1013F00001C0440F7A95EAF7415048234987EB81B1
:10140000FC811083CD01805C9F4FFC0140834D0126
:10141000F3E68F0E911CF40190811D01F3E42F0E71
:10142000311CF1019083AD014C5B5F4F5E834D83B6
:1014300081E0911180E0ED81FE818083CD01845BAC
:101440009F4FFC017081F701849190E0012E02C052
:10145000959587950A94E2F7612F670F683088F0B9
:101460002F5F3F4FDA963C932E93D997F901449121
:1014700098E0911B01C0440F9A95EAF7842B6850BD
:101480007901EB81FC81608341E050E08A01072E05
:1014900001C0000F0A94EAF7015080239FEF970FD5
:1014A00001C0440F9A95EAF7782E741ACD01835B38
:1014B0009F4FFC010081F701849190E0062E02C04D
:1014C000959587950A94E2F7102F160F183088F03B
:1014D0002F5F3F4FDA963C932E93D997F9014491B1
:1014E00098E0961B01C0440F9A95EAF7842B185098
:1014F000790141E050E0BA01002E01C0660F0A9464
:10150000EAF761508623EB81FC811083015001C012
:10151000440F0A95EAF79985941BAD01425B5F4F32
:10152000FA016081F701449150E0012E02C0559507
:1015300047950A94E2F7762F710F783078F0F90129
:101540003196DA96FC93EE93D997249158E0511B8B
:1015500001C0220F5A95EAF7422B7850EB81FC81AB
:10156000708321E030E0F901062E01C0EE0F0A94ED
:10157000EAF7E1504E23615001C0220F6A95EAF765
:10158000421B488B1C140CF05CC17D015D01F5E42D
:10159000AF0EB11CD5011C91890F082F0195212F89
:1015A000402F672DF70183AD0E947F09D82ED70108
:1015B000DB968C93DB97212F402F672DDC968C9147
:1015C0000E947209F70184AF113009F48AC108F44E
:1015D00090C1123009F479C1133009F08FC1298507
:1015E0002D0D982F9C1901E0080F81E0890F482FDD
:1015F0006D2DC7010E94220F882309F422C1D70153
:10160000DD961C92DD97DE961C92DE97EB81FC81C5
:101610003081D996ED91FC91DA97A701485B5F4F35
:101620005D874C87B701675B7F4F7F876E87C701F8
:101630008E5B9F4F9B878A8788E0582E232F3A82A4
:101640002982AC85BD854C91849190E0022E02C028
:10165000959587950A94E2F7342F320F383078F059
:101660003196D701DA96FC93EE93D9976491952D34
:10167000921B01C0660F9A95EAF7862B385061E0FD
:1016800070E002C0660F771F4A95E2F7AB01415048
:1016900048234887AB81BC813C93AE85BF857C9154
:1016A000849190E0032E02C0959587950A94E2F705
:1016B000672F630F683090F03196D701DA96FC936C
:1016C000EE93D9972491422F50E0952D931B9A01C8
:1016D00001C0220F9A95EAF7822B685021E030E092
:1016E00001C0220F7A95EAF7215028232F83EB813E
:1016F000FC816083D701DD96BC91B98BF701D6AC34
:101700007B2E1D2D6884D701DF964C90DF97DB96EA
:10171000CC90DB97DC960C91302E05C06D1468F1EF
:101720006D181F5F712CD42CD718F5010081202F64
:10173000412F672D8C2D0E947F09282E202F412FAD
:10174000672D832D0E947209AA85BB859C919111FA
:10175000E5CFED81FE819081D4019C932D2D6D14F8
:1017600008F4262D482F622DC7010E94780EF7013C
:1017700047ACC3AC34AC6D1498F6760CD701DD964B
:101780007C92DD97DE961C936F808C2DD32C4718AE
:10179000641408F074C00D2DF5014080D12E242D65
:1017A000412F672D0E947F09C82E242D412F672DC0
:1017B000802F0E947209A981BA819C91F4019083C3
:1017C000042D262D482F6C2DC7010E94780E760C13
:1017D000D701DD967C92DD97DE961C93DE97EB8138
:1017E000FC813081D996ED91FC91DA97849190E05B
:1017F000032E02C0959587950A94E2F721E0230F06
:10180000283080F03196D701DA96FC93EE93D99781
:101810004491952D931B01C0440F9A95EAF7842BB0
:1018200029EF230FAB81BC812C9380FD6ACFB98552
:101830001B170CF406CF29803A80F1018081D40176
:101840008C93888961960FB6F894DEBF0FBECDBF2A
:10185000DF91CF911F910F91FF90EF90DF90CF908C
:10186000BF90AF909F908F907F906F905F904F90C0
:101870003F902F9008957B019B01642F86CDF50149
:101880000081202F412F672D0E947F09C82E202F15
:10189000412F672D8D2D0E947209A981BA819C91DB
:1018A000F4019083242D482F6C2DC7010E94780EDF
:1018B00064181F5F712CD701DF964C90DF97DB9681
:1018C0008C91DB97DC96DC9062CF91E0392F3C194C
:1018D00021E02D0D4985941B01E0080F890FD30EDF
:1018E00086CEF9851F1B21E02D0D0C2D080FD10E82
:1018F0007ECE2C2D2D0D0985080F79CE082F2D2D8C
:1019000076CEEF92FF920F931F93CF93DF93FC015C
:10191000C5A9D6A967966F3F710509F058F46136DD
:10192000710508F43BC0E75AFF4F80819181C80FD1
:10193000D91F49C08B01FC01E55AFF4F808191817D
:10194000C80FD91F7E01C7010E945B09C80FD91FAC
:10195000C7010E946509F4E0EF0EF11C80179107A2
:1019600090F309C00817190709F434C0FE01329634
:10197000E491CE0FD11DFE01849190E0982F88272D
:101980003196E4918E2B009769F780E090E0DF912B
:10199000CF911F910F91FF90EF90089561347105E1
:1019A00090F0FC01E95AFF4F80819181C80FD91F47
:1019B0000AC0FE01249130E062177307A1F0FC0118
:1019C0008491C80FD11DCE010196FC0124912111F3
:1019D000F0CFDBCFCE010396DF91CF911F910F9116
:1019E000FF90EF900895CE010296DF91CF911F9165
:1019F0000F91FF90EF9008959F92AF92BF92CF9278
:101A0000DF92EF92FF920F931F93CF93DF93EC013E
:101A1000962EA42E89010E94F1107801B12C6E013E
:101A200085E4C80ED11CF70161917F01EA81FB8139
:101A3000CE0109958C01019609F457C00E3F8FEF36
:101A4000180789F3F6018081813009F446C0F0F16E
:101A5000823099F1833059F5EFA9F8ADCE0109959F
:101A6000992D980F8A2D9BAF8CAFB801CE010E94A3
:101A7000810C009789F0BC01CE010E948C09F6010F
:101A80009081913071F09130A8F0923069F09330EC
:101A900009F4A81AB80EC7CF80E0F6019081913002
:101AA00091F7A80EB80EBFCF981AB80EBCCF8A2DEA
:101AB000992DD9CF980EB80EB6CFEFA9F8ADCE01BB
:101AC0000995FA2DF81B8F2F992DCDCFEFA9F8ADE1
:101AD000CE0109958A0D992DC6CFEFA9F8ADCE019B
:101AE0000995992D981B8A2DBECF8B2DDF91CF9113
:101AF0001F910F91FF90EF90DF90CF90BF90AF902C
:101B00009F9008958E5B9F4FFC0160830895E7EEE0
:101B1000F0E1DC011396FC93EE9312970C94FC0C0D
:101B200029E539E0FC0130AF27AB0895EF92FF9231
:101B30000F931F93CF93DF93DC01D5962D913C91AA
:101B4000D6972617370709F4B2C0EB017C01FC01D8
:101B500076AB65ABFB0184918D010A5B1F4FD80109
:101B60008C933196E4911196EC931197FB01329688
:101B7000E4911296EC931297FB013396E49113963D
:101B8000EC931397FB013496E4911496EC9314971D
:101B9000FB013596E4911596EC931597FB0136966B
:101BA000E4911696EC931697FB013796E4911796FD
:101BB000EC931797FB013896E4911896EC931897DD
:101BC000FB013996E4911996EC931997FB013A962B
:101BD000E4911A96EC931A97FB013B96E4911B96BD
:101BE000EC931B97FB013C96E4911C96EC931C979D
:101BF000FB013D96E4911D96EC931D97FB013E96EB
:101C0000E4911E96EC931E97FB013F96E4911F967C
:101C1000EC931F97FB017096E4915096EC9361E171
:101C2000CE010E944D09F801928B818B63E1CE01B8
:101C30000E944D09D80154969C938E93539765E169
:101C4000CE010E944D09F801968B858BD701D59660
:101C50008D919C91D697892B51F13D968081E7011A
:101C6000C15ADF4F888331962081A05ABF4F2C93F1
:101C70003A9690819923D9F0913001F1F701E05B18
:101C8000FF4F608132963081082E000C990B432F54
:101C9000032E000C550B460F511D67FD5A958417F6
:101CA000950714F4630F688332170CF43C93DF91AB
:101CB000CF911F910F91FF90EF90089539979081E8
:101CC00089170CF49883F701EA5AFF4F8081821735
:101CD00074F78C93ECCF0F93DC0198963C91989716
:101CE000431B5E96ED91FC915F9709950F910895C6
:101CF0000F93FC01E35AFF4F3081332309F45AC09C
:101D0000222309F457C0223008F456C0023029F1CA
:101D1000033009F051C04F5F421BFC0135A563172A
:101D200008F448C036A5631708F044C030A957A589
:101D3000240F241708F044C0431708F040C02FEFC9
:101D4000230F5217B8F5451708F4452F231708F449
:101D5000322F232F241B01E024C06F5F621BDC01A4
:101D60009F963C919F97431728F1D0963C91D0972E
:101D7000431700F59E963C919E979D965C91260F89
:101D8000261710F56317F8F42FEF230F521790F46E
:101D9000651708F4652F231708F4322F232F261B0D
:101DA00000E0DC019096ED91FC9191970480F58123
:101DB000E02D09950F91089500FDAFCFD0CF452FAD
:101DC0004317C0F7BECF652F6317A0F7DFCF0F9380
:101DD000FC0187A5481738F180A9481720F585A58B
:101DE000681708F126A56217F0F4DF01A35ABF4F68
:101DF0009C919923C1F091E0960F9617B0F0891746
:101E000090F4382F861708F4362F921708F4292FEC
:101E1000CF01231B00A0F1A1E02D0480F581E02D6E
:101E200000E0632F09950F9108959FEF920FE7CF80
:101E3000FC01ED59FF4F633018F021E02083089535
:101E4000608308950F93FC0187A590A9491758F462
:101E5000801758F485A596A5691760F4821760F479
:101E600081E00F910895801710F4041798F380E033
:101E70000F9108958217D8F781E02617C0F70F91C8
:101E80000895BF92CF92DF92EF92FF920F931F932C
:101E9000CF93DF936C01C62F142FF22E261708F074
:101EA0004FC0E62EE21A011708F04FC0B12EB01A4B
:101EB000EB1408F060C0812F1F2DF82E8C2FC02F3F
:101EC000082F81E0DB2DD695101708F44DC00FEFD9
:101ED0009FEFF91609F44CC0FC16D0F0882339F1B5
:101EE0004C2F612FC6010E94E70EDE19D7FD0BC0F3
:101EF000CF5FFC1668F04C2F612FC6010E94E70EE1
:101F0000DE19D7FFF5CF100FDB0DCF5FFC1698F76A
:101F1000DF91CF911F910F91FF90EF90DF90CF90C5
:101F2000BF900895100FDB0DCF5FFC1688F3412F93
:101F30006C2FC6010E94E70EDE19D7FFF5CFF2CF56
:101F4000E22EE61A011708F4B1CFB02EB11AEB1445
:101F500060F1FC16F0F08B2DBE2CE82E80E0DB2D1E
:101F6000D695101708F0B3CF01E09FEFF912B4CF68
:101F70009EEFF92EB1CFFC1670F7DE2DD6958E2D83
:101F8000EB2CB82E102F8C2FCF2DF82E80E001E0F7
:101F9000ECCFDE2DD6958E2DEB2CB82E102F8C2F5E
:101FA000CF2DF82E80E00FEF93CF8F2DF02E082F3E
:101FB0008C2FC12F182F81E085CFFF920F931F9395
:101FC000CF93DF93DC01342F377081E090E0032E54
:101FD00001C0880F0A94EAF7182FED01CD59DF4FA1
:101FE00058815230E8F170E050E0487F92968D9130
:101FF0009C919397ED91FC911197F088F49EF001DC
:10200000F59EF00D1124E60FF11DE80FF91F0111E7
:1020100017C08081872B812781932150D1F7DF91D1
:10202000CF911F910F91FF90089596968C9196975E
:10203000E80FF11D8881823078F011E0222379F3D6
:102040009081972B912790833F5F377021503323E6
:1020500061F3770F110FF2CF813041F471E0EECFD1
:10206000782F513009F0C0CF10E0BECF11E071E001
:10207000E5CF0F930E946B0E0F910895FC01A08194
:10208000B18164A1862F880F880F880F87A350968F
:102090009C915097903208F09FE1990F990F990FFA
:1020A00096A355A1952F990F990F990F90A7519627
:1020B0004C915197252F30E0260F311D642F70E091
:1020C000621773072CF4842F851B880F880F880FE5
:1020D00091A7890F82A780EF83A754968D919C9139
:1020E0005597813F910508F483A756968C9184A754
:1020F00008950F93CF93DF93EC011DA68BA58EA7B8
:1021000089A58FA78AA588AB0CA92AA94BA969A97B
:10211000CE010E94220F8823E9F081E0FE01E35AFC
:10212000FF4F808389A99DA5981708F48DA78AA9D8
:102130009EA5891708F48EA78BA99FA5981708F468
:102140008FA78CA998A9891708F488ABDF91CF9144
:102150000F910895C35ADF4F1882DF91CF910F91ED
:1021600008950F931F93CF93DF93EC011EAA1DAA2E
:102170003F8F2E8F7BA36AA34CA31DA2FC01EE5BB5
:10218000FF4F1082B0961082319681E080833196A5
:10219000808319A308A3D801ED91FC91CE01099584
:1021A00019AA1BAA8FEF8AAB8CABE8A1F9A1028018
:1021B000F381E02DCE010995CE010E94900DCB5BFD
:1021C000DF4F1882DF91CF911F910F910895611118
:1021D00003C08FEF9FEF08956A30D9F3862F90E008
:1021E0000895FC01108E0895FC0199E1A6E2B7E084
:1021F00001900D929A95E1F708950F931F93CF9355
:10220000DF93EC01683109F496C0A0F46431C1F1A8
:102210006731E9F4442341F0F90181918EBD0DB499
:1022200007FEFDCF4150C9F781E0DF91CF911F91AB
:102230000F910895693189F0603249F46AE40E948F
:10224000C01481E0DF91CF911F910F91089580E03C
:10225000DF91CF911F910F910895A881B981EA85EF
:10226000FB8520E030E013964C916CE20995E88103
:10227000F981418169E4CE010E94C01481E0D5CF8B
:10228000E0912607F0912707408181E090E09C01D2
:1022900000902A0702C0220F331F0A94E2F7242B72
:1022A0002083E0912B07F0912C07208100902F07CD
:1022B00002C0880F991F0A94E2F7822B808380E581
:1022C0008CBD08811981F8018485823009F478C0B9
:1022D000833009F447C0813009F447C0F8012085F4
:1022E00031854285538560E074E284EF90E00E947E
:1022F000E314203131054105510509F453C0D8F1EB
:10230000203431054105510509F460C020383105FC
:102310004105510509F443C02032310541055105FD
:1023200041F48DB581608DBD8CB582608CBD088116
:102330001981F8019ECFE881F981408169E40E940A
:10234000C014A881B981EA85FB8520E030E01296AF
:102350004C916CE2CE01099581E0DF91CF911F9104
:102360000F9108958CB588608CBD8CB584608CBD50
:1023700008811981B3CF2230310541055105C9F0DB
:102380002830310541055105A1F68DB581608DBD1F
:102390008CB581608CBD08811981F8016ACF8CB53C
:1023A00082608CBD8CB581608CBD08811981F8017B
:1023B00060CF8DB581608DBD08811981F80159CF3D
:1023C0008CB588608CBD0881198188CF8CB58260FE
:1023D0008CBD08811981F8014CCF6A3269F008F48C
:1023E0003FC06B3269F06C32F1F481E0089585E30F
:1023F0008A95F1F7000041504111F9CF81E008952D
:10240000242F30E0A4E6B0E00E94241528EF30E04D
:1024100040E050E00E94E314233238F7822F019706
:10242000F1F781E00895693409F470C0E0F16A348D
:1024300029F16B3409F07CC0E0913C07F0913D0735
:10244000208181E090E000903E0702C0880F991F34
:102450000A94E2F7442311F1822B808381E00895EE
:10246000693241F0E0CFEFE9FFE03197F1F700C0CA
:10247000000041504111F7CF81E00895E091370706
:10248000F0913807208181E090E00090390702C088
:10249000880F991F0A94E2F74111DECF80958223BD
:1024A000808381E00895683209F042C0E0913007EE
:1024B000F0913107408181E090E09C010090340769
:1024C00002C0220F331F0A94E2F7242B2083E091ED
:1024D0003507F091360740819C010090390702C012
:1024E000220F331F0A94E2F7242B2083E0913A074E
:1024F000F0913B07208100903E0702C0880F991F92
:102500000A94E2F7822B808381E00895E0913207FC
:10251000F0913307208181E090E00090340702C001
:10252000880F991F0A94E2F7442309F4B7CF94CF98
:1025300021E0FC01218F81E00895462FDC011896EF
:10254000ED91FC91199720E030E060E209949A0146
:10255000DC011896ED91FC911997462F67E10994DB
:10256000CF93DF931F92CDB7DEB76983AE014F5F84
:102570005F4F61E00E94A7120F90DF91CF91089505
:10258000462FDC011696ED91FC91179720E030E084
:1025900065E109949A01DC011696ED91FC9117977B
:1025A000462F67E10994DC011696ED91FC9117978F
:1025B00020E030E040E068E10994DC011696ED91FE
:1025C000FC91179720E030E040E069E10994EF9238
:1025D000FF920F931F93CF93DF938C01C62FD42FBD
:1025E0007901663129F0A0F4643109F16531A1F473
:1025F00061E0C8010E949D126D2FC8010E94B012B7
:1026000081E0DF91CF911F910F91FF90EF9008959E
:10261000673151F06A3158F080E0DF91CF911F911E
:102620000F91FF90EF90089560E00E949D12D801F5
:102630001896ED91FC91199797014D2F6C2FC801B9
:10264000DF91CF911F910F91FF90EF900994FC01C2
:1026500071836083FB012289FC01248B0895CF9351
:10266000DF93EC01EA85FB8520E030E040E068E2A2
:102670000995EE81FF8120E030E040E064E1CE0189
:10268000099541E06BE4CE010E94C014E881F98114
:10269000448169E2CE010E94C01440E06BE4CE01A7
:1026A0000E94C014E881F981448169E2CE010E9450
:1026B000C01441E06BE4CE010E94C014E881F981AE
:1026C000458169E2CE01DF91CF910C94C0140F9344
:1026D0001F93CF93DF9300D000D01F92CDB7DEB70A
:1026E0006C834D832B831A830983DC011496ED914F
:1026F000FC9115979E012F5F3F4F41E06FE00995D8
:102700000F900F900F900F900F90DF91CF911F912E
:102710000F910895DC011496ED91FC91159720E03E
:1027200030E040E069E00994DC011496ED91FC9101
:10273000159720E030E040E06AE00994462FDC0184
:102740001496ED91FC91159720E030E06EE009942D
:10275000DC011496ED91FC91159720E030E040E00B
:1027600060E109948F929F92AF92BF92CF92DF92D5
:10277000EF92FF920F931F93CF93DF9300D0CDB7CB
:10278000DEB78C01842E59016B3009F4E5C058F096
:102790006F3009F475C0603109F462C06E3009F41D
:1027A000CDC080E05EC0693009F4D0C06A30C9F79E
:1027B0000E942F13C8010E94D3126FE5C8010E9426
:1027C000C012C8010E94DD1241E069E2C8010E9406
:1027D000C014F12CEE24EA94C8010E94D31262E6E0
:1027E000C8010E94C012C8010E94DD12C8010E94E7
:1027F000D3126F2DC8010E94C012C8010E94DD12C1
:10280000EA82C8010E94D312AE014E5F5F4F61E0C1
:10281000C8010E94CA12C8010E94DD12F39488E028
:10282000F812DACFC8010E94D31264E8C8010E94EE
:10283000C012C8010E94DD12C8010E94D31264E2D6
:10284000C8010E94C012C8010E94DD12C8010E9486
:10285000D31260E4C8010E94C012C8010E94DD12B8
:1028600081E00F900F90DF91CF911F910F91FF901A
:10287000EF90DF90CF90BF90AF909F908F90089592
:10288000F901F380FF0CFF0CFF0CFC018489F80EAA
:10289000C8010E94D31264E6C8010E94C012C80198
:1028A0000E94DD12C8010E94D3126F2D6F77C801FC
:1028B0000E94C012C8010E94DD12C8010E94D312FA
:1028C00060E6C8010E94C012C8010E94DD12F50135
:1028D00084818F70F82EC8010E94D3126F2DC80119
:1028E0000E94C012C8010E94DD12F5018281E080C1
:1028F000F180F8E08F9F600111248823D9F0912C9A
:1029000080E090E0F701E80FF91F80818983C8011A
:102910000E94D312AE014F5F5F4F61E0C8010E9479
:10292000CA12C8010E94DD129394892D90E08C1583
:102930009D0544F38A948110D8CF92CF0E94D31280
:10294000682D609562956F70606484CF6BE771E06D
:102950000E94271381E085CF0E94D31264E2C80150
:102960000E94C012C8010E94DD12C801882021F017
:102970000E94D31260E06ECF0E94D31260E46ACF4F
:10298000DC011A96ED91FC911B9720E030E0099450
:102990000F931F93FC0111821082158A108E1486EA
:1029A0001586168617868FEF868B828F75836483D4
:1029B000578346833187208713870287CF011F9172
:1029C0000F910C948A13A1E21A2EAA1BBB1BFD01C6
:1029D0000DC0AA1FBB1FEE1FFF1FA217B307E407FE
:1029E000F50720F0A21BB30BE40BF50B661F771F56
:1029F000881F991F1A9469F7609570958095909536
:102A00009B01AC01BD01CF010895052E97FB1EF47B
:102A100000940E941C1557FD07D00E94E31407FC88
:102A200003D04EF40C941C1550954095309521958B
:102A30003F4F4F4F5F4F08959095809570956195EA
:102A40007F4F8F4F9F4F0895A29FB001B39FC0014A
:102A5000A39F700D811D1124911DB29F700D811DCA
:102A60001124911D0895DC0101C06D934150504027
:102A7000E0F70895AEE0B0E0E0E4F5E10C94091869
:102A80000D891E898F89988D26E02C831A830983EE
:102A900097FF02C080E090E801979E838D83AE018E
:102AA000455E5F4F698D7A8DCE0101960E946A1551
:102AB0004D815E8157FD0AC02F813885421753072B
:102AC0000CF49A01F801E20FF31F10822E96E4E055
:102AD0000C942518ABE0B0E0E0E7F5E10C94FB17AF
:102AE0006C017B018A01FC0117821682838181FFC0
:102AF000CCC1CE0101963C01F6019381F70193FD13
:102B0000859193FF81917F01882309F4BAC18532B1
:102B100039F493FD859193FF81917F01853229F4EA
:102B2000B60190E00E946117E7CF912C212C312C47
:102B3000FFE1F315D8F08B3279F038F4803279F078
:102B40008332A1F4232D20611DC08D3261F08033CA
:102B500069F4232D216016C0832D8260382EE32D69
:102B6000E4603E2E2AC0F32DF8601DC037FC2DC056
:102B700020ED280F2A3040F08E32B9F436FC81C1A6
:102B8000232D2064322E19C036FE06C08AE0989E9E
:102B9000200D1124922E11C0EAE02E9E200D11244A
:102BA000222EF32DF0623F2E08C08C3621F4832DA7
:102BB0008068382E02C0883641F4F70193FD859174
:102BC00093FF81917F018111B3CF982F9F7D955401
:102BD000933028F40C5F1F4F9FE399830DC0833619
:102BE00031F0833771F0833509F059C021C0F80105
:102BF000808189830E5F1F4F88248394912C530119
:102C000013C02801F2E04F0E511CF801A080B180E2
:102C100036FE03C0692D70E002C06FEF7FEFC50183
:102C20000E9456174C018201F32DFF773F2E16C0EC
:102C3000280122E0420E511CF801A080B18036FE2E
:102C400003C0692D70E002C06FEF7FEFC5010E94E5
:102C50004B174C01F32DF0683F2E820133FC1BC053
:102C6000822D90E088169906B0F4B60180E290E0DB
:102C70000E9461172A94F4CFF50137FC859137FE45
:102C800081915F01B60190E00E94611721102A94A2
:102C900021E0821A91088114910471F7E8C084360A
:102CA00011F0893641F5F80137FE07C06081718166
:102CB000828193810C5F1F4F08C060817181072E54
:102CC000000C880B990B0E5F1F4FF32DFF763F2EE4
:102CD00097FF09C090958095709561957F4F8F4FB4
:102CE0009F4FF0683F2E2AE030E0A3010E949D171D
:102CF000882E861845C0853731F4232D2F7EB22EBD
:102D00002AE030E025C0932D997FB92E8F36C1F08F
:102D100018F4883579F0B5C0803719F0883721F07C
:102D2000B0C0E92FE061BE2EB4FE0DC0FB2DF460F3
:102D3000BF2E09C034FE0AC0292F2660B22E06C05D
:102D400028E030E005C020E130E002C020E132E0C0
:102D5000F801B7FE07C060817181828193810C5FA9
:102D60001F4F06C06081718180E090E00E5F1F4FB1
:102D7000A3010E949D17882E8618FB2DFF773F2EFA
:102D800036FE0DC0232D2E7FA22E891458F434FE5A
:102D90000BC032FC09C0832D8E7EA82E05C0B82C36
:102DA000A32C03C0B82C01C0B92CA4FE0FC0FE0197
:102DB000E80DF11D8081803321F49A2D997EA92E92
:102DC00009C0A2FE06C0B394B39404C08A2D8678CD
:102DD00009F0B394A3FC11C0A0FE06C0B21488F49D
:102DE000280C922C9B180EC0B21460F4B60180E23D
:102DF00090E00E946117B394F7CFB21418F42B1827
:102E000002C0982C212CA4FE10C0B60180E390E0F3
:102E10000E946117A2FE17C0A1FC03C088E790E0E2
:102E200002C088E590E0B6010CC08A2D867859F082
:102E3000A1FE02C08BE201C080E2A7FC8DE2B601D8
:102E400090E00E946117891438F4B60180E390E0A5
:102E50000E9461179A94F7CF8A94F301E80DF11D4F
:102E60008081B60190E00E9461178110F5CF222089
:102E700009F442CEB60180E290E00E9461172A94E4
:102E8000F6CFF6018681978102C08FEF9FEF2B96D8
:102E9000E2E10C941718FC0105906150704001109C
:102EA000D8F7809590958E0F9F1F0895FC01615073
:102EB000704001900110D8F7809590958E0F9F1F5C
:102EC00008950F931F93CF93DF93FB01238121FD7F
:102ED00003C08FEF9FEF2CC022FF16C046815781A1
:102EE000248135814217530744F4A081B1819D01AB
:102EF0002F5F3F4F318320838C93268137812F5F53
:102F00003F4F3783268314C08B01EC01FB01008403
:102F1000F185E02D0995892BE1F6D80116968D9162
:102F20009C911797019617969C938E931697CE01B6
:102F3000DF91CF911F910F910895FA01AA272830B0
:102F400051F1203181F1E8946F936E7F6E5F7F4F76
:102F50008F4F9F4FAF4FB1E03ED0B4E03CD0670FF2
:102F6000781F891F9A1FA11D680F791F8A1F911D45
:102F7000A11D6A0F711D811D911DA11D20D009F495
:102F800068943F912AE0269F11243019305D3193D7
:102F9000DEF6CF010895462F4770405D4193B3E0C0
:102FA0000FD0C9F7F6CF462F4F70405D4A3318F067
:102FB000495D31FD4052419302D0A9F7EACFB4E018
:102FC000A6959795879577956795BA95C9F70097D0
:102FD0006105710508959B01AC010A2E0694579571
:102FE000479537952795BA95C9F7620F731F841FC8
:102FF000951FA01D08952F923F924F925F926F925E
:103000007F928F929F92AF92BF92CF92DF92EF9278
:10301000FF920F931F93CF93DF93CDB7DEB7CA1BF9
:10302000DB0B0FB6F894DEBF0FBECDBF09942A8824
:10303000398848885F846E847D848C849B84AA84CC
:10304000B984C884DF80EE80FD800C811B81AA8159
:10305000B981CE0FD11D0FB6F894DEBF0FBECDBF24
:08306000ED010895F894FFCF83
:10306800240025000524002500032400250002244F
:103078000025000124002500004C2F523A25336416
:103088002C204449523A256300462F423A2533649E
:103098002C204449523A2563004D4F56453A202585
:1030A800630054455354300054455354310054453B
:1030B8005354320054455354330056696E3A202510
:1030C80034642C20583A202534642C20593A202581
:1030D80034640A0D003E1079103910000128960258
:1030E800022850404B4C0003001E6410080000806A
:0430F8000040000094
:00000001FF
